:020000040000FA
:0400000080313928EA
:100008007E1480318B1D09280A2812280B1C0D2804
:100018000E28122882316022803137280B1F1528BC
:10002800162837282100911D1A281B28242820006B
:10003800911D1F282028242882310022803137284A
:100048002100111C2828292837282000111C2D28B8
:100058002E28372882313922803137283728372807
:100068003728372837287E10090080313B2884310B
:1000780014248031D300843115248031D4002030F9
:100088008400003085001F308331E02380317E10EA
:1000980020008331C82B2000CE00D001CF01F528E5
:1000A800B801B80A0B29AB285408CB004B08B90093
:1000B800BB285E285408CB004B08D0003908033908
:1000C800CB004B08BD003908CB000230CB36890B7A
:1000D8006A284B080F39CC004C08BC008F28500800
:1000E8008331BF238031BB2820005008CB004B0848
:1000F800BE0081310C218031BB2802302000500223
:10010800031887288828BB285008CB004B08BB0059
:10011800BB28BB28BB283908CB000630CB36890B57
:1001280092284B080339CC00CD014D08003A031939
:100138009E28BB284C08013A03197328033A03196F
:100148007828013A03198128BB28BB28BB2838081E
:10015800CB00CC014C08003A0319B3285E284B08A1
:10016800003A03195E28013A031958285E2820002E
:10017800B8010B293A080319C228C328C828370828
:10018800CB004B08CF00D8283608CB004B08CF004F
:10019800D828D8284F0824009100E92820004F08C3
:1001A80024009100E928E92820003B08CB00CC0175
:1001B8004C08003A0319E128E9284B08003A0319CA
:1001C800CE28013A0319D228E92801302000CB00B3
:1001D8004B08BA070130CB004B08BA050B290B298D
:1001E8000B294E08CB00CC014C08003A0319FD2816
:1001F8000B294B08003A03195428013A0319BE2861
:10020800033A0319AB28013A03190B290B290800F3
:100218006B2920003E08FA00FB017A08F0007B08F1
:10022800F1000330F2000030F30082318522813181
:100238007108F7007008F6008231EF2281318229B7
:1002480020003E08FA00FB017A08F0007B08F10064
:100258000330F2000030F3008231852281317108C9
:10026800F7007008F6008231D9228131822982296B
:100278003D2920003E08FA00FB017A08F0007B08BF
:10028800F1000330F2000030F30082318522813121
:100298007108F7007008F6008231EF2281312000E2
:1002A8003E08FA00FB017A08F0007B08F1000330F1
:1002B800F2000030F3008231852281317108F700A5
:1002C8007008F6008231D9228131822982292000E2
:1002D8003D08FA00FB017B08003A031974293D29FF
:1002E8007A08003A03198229013A03190D29033AB9
:1002F80003192429013A03193D293D2920003C36D8
:1003080003198729882995293C1C8B298C29902930
:1003180022000E169529952922000E129529952955
:10032800952920003C08FA000330FA36890B9929F0
:100338007A080319A029A129B3293C08FA00023038
:10034800FA36890BA4297A1CAA29AB29AF292200DD
:100358000E17B329B32922000E13B329B32920009D
:100368001110833168238131080022008C018D012E
:1003780040308E003B3021008C00F0308D008E0123
:100388008F3023008E008D0107308C0024008D01F2
:100398008C012100951722009D012700131293124A
:1003A800121292121116911696129613951295130F
:1003B8009416941786302000D1000330D20084317F
:1003C80004248131B5302000D1000330D2008331BC
:1003D800FE238131AB302000D1000330D2008331BD
:1003E800F8238131A1302000D1000330D2008331BD
:1003F800F22381318B1508005530FC007C08FD0084
:100408002000911124001108FC007C08FD00141D37
:100418000E2A0F2A222A941E122A132A1C2A161F71
:10042800162A172A1C2A033080314F208231362A97
:10043800013080314F208231362A362A941A252AF3
:10044800262A2B2A003080314F208231362A7D0817
:10045800FC007C082000D400023080314F2082311B
:10046800362A362A240015160800200011104208E2
:10047800F1004108F0008331052382312000530840
:10048800FA00FB010130B0070030B13D7B083102B2
:10049800031D502A7A083002031C532A542A5F2A63
:1004A8008331782382312000B001B1010A30FA008B
:1004B8007A08D3005F2A08002700131E642A652AD9
:1004C800692A833158238231692A2700931E6D2AAD
:1004D8006E2A722A833148238231722A2700961E97
:1004E800762A772A7B2A8331382382317B2A270090
:1004F800961F7F2A802A842A833128238231842ADE
:100508000800F401F501882A701C8B2A8C2A902A8D
:100518007208F4077308F53D0130F235F30D890BC5
:10052800912A0130F136F00C890B962A7008710473
:10053800031D9F2AA02A882AA12A7508F100740899
:10054800F000A62A08008131B921823184310A24B9
:1005580082318431102482318331172382318331EF
:10056800EC2382318331D82382318331D023823105
:100578008231C02282310800200099013C30970066
:10058800B03096001708C2001608C10011102100EB
:10059800111494302000D1000330D2008331E623B7
:1005A800823131302000980008007708F900760879
:1005B800F800F936F80CF936F80C78082C00950094
:1005C80076080339F8000530F835FF3E031DE82AA0
:1005D8007835940008007708F9007608F800F936AD
:1005E800F80CF936F80C78082C00920076080339D4
:1005F800F8000530F835FF3E031DFE2A78359100D6
:1006080008002000181D092B0A2B112B181071083F
:100618009700700896001814162B71089700700838
:100628009600162B08008030240094002630950090
:100638000130960097017F30930008309200200027
:100648009111210091150800200043084404031962
:100658002E2B2F2B352B44088A0043080A008331A0
:10066800352B270096130800200045084604031977
:100678003E2B3F2B452B46088A0045080A0083314C
:10068800452B270096120800200047084804031944
:100698004E2B4F2B552B48088A0047080A008331F8
:1006A800552B270093120800200049084A04031913
:1006B8005E2B5F2B652B4A088A0049080A008331A4
:1006C800652B27001312080020004208F10041089A
:1006D800F0008331052383312000B401B5010A30CD
:1006E800F2007208D300080020003F0840040319F4
:1006F8007E2B7F2B852B40088A003F080A00833118
:10070800852B080001302000AC070030AD3D0030DB
:10071800AE3D0030AF3D0130B6070030B73D0800B0
:100728000030F600F7008231EF2283310030F60006
:10073800F7008231D9228331080001302000A00758
:100748000030A13D0030A23D0030A33D080001303B
:100758002000A8070030A93D0030AA3D0030AB3D7D
:10076800080001302000A4070030A53D0030A63D58
:100778000030A73D0800F1007108F0007008200063
:10078800D300B201B30108008231A72283318B174D
:100798000B17CD2B80313928C73020009B009A01D8
:1007A800911004309C000800C0302C009600C7301F
:1007B8009500C03094000800640080010131890B65
:1007C800E12B003420005208C0005108BF00080087
:1007D800C0302C00930092019101080020005208BB
:1007E800C4005108C300080020005208C600510880
:1007F800C500080020005208C8005108C7000800BA
:1008080020005208CA005108C900080078302100A9
:100818009900220096010800163021009700080070
:040828000A34553405
:020000040001F9
:04000E00E4FFFFFF0D
:00000001FF
