:020000040000FA
:0400000080313928EA
:100008007E1480318B1D09280A2812280B1C0D2804
:100018000E28122882314322803137280B1F1528D9
:10002800162837282100911D1A281B28242820006B
:10003800911D1F2820282428823108228031372842
:100048002100111C2828292837282000111C2D28B8
:100058002E2837288231A922803137283728372897
:100068003728372837287E10090080313B2884310B
:100078005E248031CD0020308400003085001A30A5
:1000880084312A2480317E1020008431022C0329F7
:1000980020003908FA00FB017A08F0007B08F1001B
:1000A8000330F2000030F300823168228031710899
:1000B800F7007008F60083313C23803116292000B0
:1000C8003908FA00FB017A08F0007B08F1000330D8
:1000D800F2000030F3008231682280317108F700A5
:1000E8007008F6008331262380311629200039084C
:1000F800FA00FB017A08F0007B08F1000330F200F7
:100108000030F3008231682280317108F7007008EE
:10011800F600833110238031162920003908FA00AF
:10012800FB017A08F0007B08F1000330F200003090
:10013800F3008231682280317108F7007008F600F8
:100148008231FA2280311629A92820003908FA00BC
:10015800FB017A08F0007B08F1000330F200003060
:10016800F3008231682280317108F7007008F600C8
:1001780083313C23803120003908FA00FB017A08DA
:10018800F0007B08F1000330F2000030F300823108
:10019800682280317108F7007008F6008331262341
:1001A800803120003908FA00FB017A08F0007B084A
:1001B800F1000330F2000030F30082316822803110
:1001C8007108F7007008F600833110238031200091
:1001D8003908FA00FB017A08F0007B08F1000330C7
:1001E800F2000030F3008231682280317108F70094
:1001F8007008F6008231FA2280311629162920006B
:100208003808FA00FB017B08003A03190C29A928D1
:100218007A088400053004020318A92883310435BC
:10022800EF3E8200200011108331F923803108004D
:100238002000C600C801C701AA29B401B40AC02910
:100248005F294D08FC007C08B50070292B294D0852
:10025800FC007C08C80047294808FC007C08B90055
:100268005A294808FC007C08B8005A29023048027C
:1002780003183F2940295A294808FC007C08B70080
:100288005A295A295A293508FC00FD017D08003AE7
:1002980003194F295A297C08013A03193029033ACE
:1002A80003193529013A03193A295A2980314B2073
:1002B80081317029702920003408FC00FD017D0877
:1002C800003A031968292B297C08003A03192B29BD
:1002D800013A031925292B292000B401C029360821
:1002E8000319772978297D293308FC007C08C70081
:1002F8008D293208FC007C08C7008D298D29470804
:10030800240091009E2920004708240091009E297E
:100318009E2920003708FC00FD017D08003A0319DA
:1003280096299E297C08003A03198329013A031962
:1003380087299E290130FC007C082000B60701307F
:10034800FC007C08B605C029C029C0294608FC0065
:10035800FD017D08003A0319B229C0297C08003A3A
:1003680003192129013A03197329033A03195F294B
:10037800013A0319C029C029080022008C018D0107
:1003880040308E003B3021008C00F0308D008E0113
:100398008F3023008E008D0107308C0024008D01E2
:1003A8008C012100951722009D012700131293123A
:1003B80012129212111691169612961395129513FF
:1003C80094169417C3302000CB000330CC0084313E
:1003D8004E248131E5302000CB000330CC0084313D
:1003E80048248131DB302000CB000330CC0084313D
:1003F80042248131D1302000CB000330CC0084313D
:100408003C2481318B15080055302000C90049086B
:10041800CA009111240011082000C9004908CA0027
:100428002400141D182A192A2C2A941E1C2A1D2A55
:10043800262A161F202A212A262A033081311C2128
:100448008231402A013081311C218231402A402AE0
:10045800941A2F2A302A352A003081311C21823102
:10046800402A20004A08C9004908CD0002308131DD
:100478001C218231402A402A240015160800270032
:10048800131E472A482A4C2A8331A52382314C2A35
:100498002700931E502A512A552A833195238231E9
:1004A800552A2700961E592A5A2A5E2A83318523FF
:1004B80082315E2A2700961F622A632A672A8331BF
:1004C80075238231672A0800F401F5016B2A701C34
:1004D8006E2A6F2A732A7208F4077308F53D0130F3
:1004E800F235F30D890B742A0130F136F00C890BC3
:1004F800792A70087104031D822A832A6B2A842AA8
:100508007508F1007408F000892A08008131C121BA
:10051800823184315424823184315A2482318331A6
:100528006423823184313624823184312224823119
:1005380084311224823184311A24823184310A248C
:1005480082318231C82282310800200011103D0812
:10055800F1003C08F0008331522382310130200041
:10056800B0070030B13D003031020A3003193002C3
:10057800031CBF2AC02AC72A8331B5238231200031
:10058800B001B101C72A0800200099013C3097004A
:10059800B03096001708BD001608BC0011102100E5
:1005A8001114E1302000CB000230CC00843130241B
:1005B800823131302000980008000030F600F70042
:1005C80083313C2382310030F600F7008331262343
:1005D80082310030F600F700833110238231003079
:1005E800F600F7008231FA22823108007708F90014
:1005F8007608F800F936F80CF936F80C78082C006B
:100608009B0076080339F8000530F835FF3E031DD6
:10061800092B78359A0008007708F9007608F80061
:10062800F936F80CF936F80C78082C00980076089A
:100638000339F8000530F835FF3E031D1F2B7835C8
:10064800970008007708F9007608F800F936F80CE2
:10065800F936F80C78082C00950076080339F8006C
:100668000530F835FF3E031D352B7835940008001A
:100678007708F9007608F800F936F80CF936F80C1E
:1006880078082C00920076080339F8000530F83510
:10069800FF3E031D4B2B7835910008002000181DE4
:1006A800562B572B5E2B1810710897007008960070
:1006B8001814632B7108970070089600632B0800C4
:1006C8008030240094002630950001309600970170
:1006D8007F3093000830920020009111210091157D
:1006E800080020003E083F0403197B2B7C2B822B3B
:1006F8003F088A003E080A008331822B27009613A0
:10070800080020004008410403198B2B8C2B922BE6
:1007180041088A0040080A008331922B270096126C
:10072800080020004208430403199B2B9C2BA22B92
:1007380043088A0042080A008331A22B270093123B
:1007480008002000440845040319AB2BAC2BB22B3E
:1007580045088A0044080A008331B22B2700131287
:10076800080020003A083B040319BB2BBC2BC22B02
:100778003B088A003A080A008331C22B080001307E
:100788002000AC070030AD3D0030AE3D0030AF3D3D
:100798000130B2070030B33D080001302000A00747
:1007A8000030A13D0030A23D0030A33D08000130DB
:1007B8002000A8070030A93D0030AA3D0030AB3D1D
:1007C800080001302000A4070030A53D0030A63DF8
:1007D8000030A73D08008031A92880314C2880319D
:1007E800632880317A288031912820003D08F10063
:1007F8003C08F000833152238331080082318A2279
:1008080084318B170B17072C80313928C73020000B
:100818009B009A01911004309C000800C0302C0005
:100828009C0063309B00C0309A000800C0302C0048
:10083800990063309800C03097000800C0302C0041
:100848009600C7309500C03094000800640080010D
:100858000131890B2B2C003420004C08BB004B08BD
:10086800BA000800C0302C009300920191010800E2
:1008780020004C08BF004B08BE00080020004C08B0
:10088800C1004B08C000080020004C08C3004B08FA
:10089800C200080020004C08C5004B08C40008002E
:1008A80078302100990022009601080016302100B6
:0608B80097000800553412
:020000040001F9
:04000E00E4FFFFFF0D
:00000001FF
