:020000040000FA
:0400000080314628DD
:100008007E1480318B1E09280A2812280B1D0D2802
:100018000E28122892318922803144288B1D1528F8
:1000280016281E280B1C19281A281E2891312D2144
:10003800803144280B1F2128222844282100911DA3
:100048002628272830282000911D2B282C283028E6
:1000580091319D21803144282100111C34283528F4
:1000680044282000111C39283A28442888310C20BB
:1000780080314428442844284428442844284428D3
:100088007E100900803148288731FF278031EF0032
:1000980022009E31EA268031ED009E31EB26803128
:1000A800EE009E31EC268031EF006830840000308D
:1000B800850007309E31F92680312100EF012200AA
:1000C800E501E601E701E801E901A030840001301B
:1000D800850014309E31F92680317E102000803151
:1000E80075289031D7208031792822008E177C28F6
:1000F8008B170B17D4010030C3000030C20000304A
:10010800C1000030C0000030C7000030C600003019
:10011800C5000030C4000030D8000030D7000030DF
:10012800D6000030D5000030DC000030DB000030A5
:10013800DA000030D900A02869080319A428A528E6
:100148000E2E23002C082200A20023002D082200D6
:10015800A30023002E082200A40023002F08220059
:10016800A500230024092200A60023002509220057
:10017800A700230026092200A8002300270922003F
:10018800A900A60A0319A70A0319A80A0319A90AA4
:100198002608A2072708A33D2808A43D2908A53D4D
:1001A800A209A309A409A509A20A0319A30A031904
:1001B800A40A0319A50A6808AA00AB01AA35AB0D61
:1001C800AA35AB0D2A08AC002B08AD000030AD1BDA
:1001D800FF30AE00AF002C08A2072D08A33D2E0863
:1001E800A43D2F08A53D2508E0002408DF002308CA
:1001F800DE002208DD00230028082200A2002300D8
:1002080029082200A30023002A082200A4002300B2
:100218002B082200A500230020092200A6002300A5
:1002280021092200A700230022092200A800230098
:1002380023092200A900A60A0319A70A0319A80A74
:100248000319A90A2608A2072708A33D2808A43DE0
:100258002908A53DA209A309A409A509A20A031909
:10026800A30A0319A40A0319A50A6708AA00AB017F
:10027800AA35AB0DAA35AB0D2A08AC002B08AD008A
:100288000030AD1BFF30AE00AF002C08A2072D08D0
:10029800A33D2E08A43D2F08A53D2508E400240809
:1002A800E3002308E2002208E1005D08A2005E08DE
:1002B800A3005F08A4006008A5004009A600410942
:1002C800A7004209A8004309A900A60A0319A70A1A
:1002D8000319A80A0319A90A2608A2072708A33D93
:1002E8002808A43D2908A53D25082100A3002200CF
:1002F80024082100A200220023082100A1002200D6
:1003080022082100A000013087311F2780312100F9
:100318002308B5002208B4002108B3002008B20061
:100328003C30B1002330B000D730AF000A30AE0007
:1003380096312126803121003108E5003008E4009B
:100348002F08E3002E08E2009231FF2280312100BD
:1003580065082200B300210064082200B2002100D1
:1003680063082200B100210062082200B000610881
:10037800A2006208A3006308A4006408A500440959
:10038800A6004509A7004609A8004709A900A60A2A
:100398000319A70A0319A80A0319A90A2608A20714
:1003A8002708A33D2808A43D2908A53D25082100C4
:1003B800A300220024082100A20022002308210013
:1003C800A100220022082100A000013087311F2748
:1003D800803121002308B5002208B4002108B300A9
:1003E8002008B2003C30B1002330B000D730AF0055
:1003F8000A30AE0096312126803121003108E5000F
:100408003008E4002F08E3002E08E2009231FF22B2
:100418008031210065082200B7002100640822000D
:10042800B600210063082200B500210062082200FE
:10043800B40058082100A300220057082100A20098
:10044800220056082100A100220055082100A00022
:10045800013087311F27803121002308CF0022086F
:10046800CE002108CD002008CC003C30CB00233042
:10047800CA00D730C9000A30C8008D3195258031AF
:1004880021004B08E5004A08E4004908E300480851
:10049800E2009231FF22803121006308EE006208F9
:1004A800ED0091315221803121006E08803A2200FE
:1004B800A20083302202031D642AE93021006D0264
:1004C8000318672A682AA22A3C302100CB0023306F
:1004D800CA00D730C9000A30C800220058082100D5
:1004E800A300220057082100A2002200560821007C
:1004F800A100220055082100A000013087311F27E4
:10050800803121002308CF002208CE002108CD0029
:100518002008CC008D319525803121004B08220020
:10052800CB0021004A082200CA0021004908220005
:10053800C900210048082200C800D22A2200D81F7A
:10054800A62AA72AAC2A1830D000FC30D100B12A3C
:100558000130D0000030D100B12A50082100A0009D
:10056800220051082100A100890D893B8909A200B8
:10057800A300013087311F27803121002308220082
:10058800CB00210022082200CA00210021082200F5
:10059800C900210020082200C800D22A4B082100E7
:1005A800E50022004A082100E40022004908210051
:1005B800E300220048082100E2009231FF22803146
:1005C800210065082200BB00210064082200BA004F
:1005D800210063082200B900210062082200B80047
:1005E8005C082100A30022005B082100A200220071
:1005F8005A082100A100220059082100A00001305A
:1006080087311F27803121002308CF002208CE0020
:100618002108CD002008CC003C30CB002330CA0094
:10062800D730C9000A30C8008D31952580312100A6
:100638004B08E5004A08E4004908E3004808E200DE
:100648009231FF22803121006308EE006208ED003C
:1006580091315221803121006E08803A2200A20097
:1006680083302202031D3B2BE93021006D02031861
:100678003E2B3F2B792B3C302100CB002330CA0086
:10068800D730C9000A30C80022005C082100A30046
:1006980022005B082100A20022005A082100A100C4
:1006A800220059082100A000013087311F2780311E
:1006B80021002308CF002208CE002108CD00200801
:1006C800CC008D319525803121004B082200CF00C8
:1006D80021004A082200CE00210049082200CD004E
:1006E800210048082200CC00A92B2200DC1F7D2B0A
:1006F8007E2B832B1830D200FC30D300882B01309E
:10070800D2000030D300882B52082100A00022001C
:1007180053082100A100890D893B8909A200A30083
:10072800013087311F278031210023082200CF00A4
:10073800210022082200CE00210021082200CD003D
:10074800210020082200CC00A92B4F082100E50039
:1007580022004E082100E40022004D082100E30099
:1007680022004C082100E2009231FF228031210052
:1007780065082200BF00210064082200BE00210095
:1007880063082200BD00210062082200BC00600846
:10079800C3005F08C2005E08C1005D08C0006408AD
:1007A800C7006308C6006208C5006108C4005D0888
:1007B800D5075E08D63D5F08D73D6008D83D61087B
:1007C800D9076208DA3D6308DB3D6408DC3D690847
:1007D80003390319F02BF12B0E2EF82DF82D6D0887
:1007E800A200A301A401A50125082100A30022005D
:1007F80024082100A200220023082100A1002200D1
:1008080022082100A000013087311F2780312100F4
:100818002308B5002208B4002108B3002008B2005C
:100828004230B100FA30B0000030AF000030AE0006
:1008380096312126803121003108CF003008CE00C2
:100848002F08CD002E08CC00220060082100A3004C
:1008580022005F082100A20022005E082100A100FA
:1008680022005D082100A000013087311F27803158
:1008780021002308CB002208CA002108C90020084B
:10088800C8008D319525803121004B08E5004A08C4
:10089800E4004908E3004808E2009231FF22803171
:1008A80021006308EE006208ED009031F3208031EA
:1008B8002200E01B6E2C6008031D6D2C5F08031DD1
:1008C8006D2C5E08031D6D2C14305D0203186D2C11
:1008D8006E2C0E2E0330A2002208E6000E2E0E2EDD
:1008E8006D08A200A301A401A50125082100A30009
:1008F800220024082100A200220023082100A100D0
:10090800220022082100A000013087311F278031F2
:1009180021002308B5002208B4002108B3002008EC
:10092800B2004230B100FA30B0000030AF00003001
:10093800AE0096312126803121003108CF003008E1
:10094800CE002F08CD002E08CC002200640821001C
:10095800A300220063082100A200220062082100EF
:10096800A100220061082100A000013087311F2763
:10097800803121002308CB002208CA002108C900C1
:100988002008C8008D319525803121004B08E500ED
:100998004A08E4004908E3004808E2009231FF22CF
:1009A800803121006308EE006208ED0091311021CA
:1009B80080312200E41BEF2C6408031DEE2C630831
:1009C800031DEE2C6208031DEE2C1430610203187F
:1009D800EE2CEF2C0E2E0330A2002208E5000E2E7E
:1009E8000E2E6D08A200A301A401A501250821006F
:1009F800A300220024082100A200220023082100CD
:100A0800A100220022082100A000013087311F2701
:100A1800803121002308B5002208B4002108B30062
:100A28002008B2004230B100FA30B0000030AF0008
:100A38000030AE0096312126803121003108CF00E8
:100A48003008CE002F08CD002E08CC002200600808
:100A58002100A30022005F082100A20022005E08F6
:100A68002100A10022005D082100A000013087318B
:100A78001F27803121002308CB002208CA00210843
:100A8800C9002008C8008D319525803121004B0808
:100A9800E5004A08E4004908E3004808E20092310A
:100AA800FF22803121006308EE006208ED009031DA
:100AB800F320803122006D08A200A301A401A50142
:100AC80025082100A300220024082100A2002200FA
:100AD80023082100A100220022082100A0000130E3
:100AE80087311F27803121002308B5002208B40070
:100AF8002108B3002008B2004230B100FA30B0003B
:100B08000030AF000030AE00963121268031210040
:100B18003108CF003008CE002F08CD002E08CC00B9
:100B2800220064082100A300220063082100A2001B
:100B3800220062082100A100220061082100A00013
:100B4800013087311F27803121002308CB0022087C
:100B5800CA002108C9002008C8008D3195258031B8
:100B680021004B08E5004A08E4004908E30048086A
:100B7800E2009231FF22803121006308EE00620812
:100B8800ED009131102180312200E01BDA2D600840
:100B9800031DD92D5F08031DD92D5E08031DD92D0E
:100BA80014305D020318D92DDA2DDF2D0330A20091
:100BB8002208E600DF2DE41BF02D6408031DEF2D4D
:100BC8006308031DEF2D6208031DEF2D1430610229
:100BD8000318EF2DF02D0E2E0330A2002208E50099
:100BE8000E2E0E2E0E2E0E2E69080339A200A3011A
:100BF8002308003A0319012E0E2E2208013A031980
:100C0800F32B033A0319742C013A0319F52C0E2E11
:100C18000E2E0E2E0A305402031C132E142E232ED1
:100C2800152E03108E1F031403181B2E1E2E2200D0
:100C38008E17202E22008E13212ED401232E34301D
:100C48002200A200F130890B272EA20B272E00329A
:100C580001302200A2002208D407A028A028803151
:100C68004628052FF530F40074082200E905200015
:100C78006A080319402E412E562E6C08F400F5011F
:100C8800F435F50DF435F50D7408F0007508F1002C
:100C980090310E2086312200E601E60A9F310F27A7
:100CA8008631562E20006B3603195B2E5C2E6A2E79
:100CB8005D2E6B080139F400F40E22000E0874064C
:100CC800EF3974068E006A2E6A2E6A2E22000E10E4
:100CD8001C2F1C2FFA30F40074082200E9052000AC
:100CE8006A080319782E792E8E2E6C08F400F50107
:100CF800F435F50DF435F50D7408F0007508F100BC
:100D08009031242086312200E501E50A9F315827D9
:100D180086318E2E20006B360319932E942EA42E26
:100D2800952E6B080139F400F40EF40DF40D220031
:100D38000E087406BF3974068E00A42EA42EA42EA5
:100D480022008E101C2F1C2F1C2FAA2E2200E90116
:100D580020006A080319B12EB22EDB2E6C08F400AD
:100D6800F501F435F50DF435F50D7408F000750846
:100D7800F10090310E20863120006C08F400F50156
:100D8800F435F50DF435F50D7408F0007508F1002B
:100D98009031242086312200E601E60AE501E50AC1
:100DA8009F310F2786319F3158278631DB2E20004F
:100DB8006B360319E02EE12EFD2EE22E6B08013969
:100DC800F400F40E22000E087406EF3974068E0043
:100DD800ED2E20006B080139F400F40EF40DF40D2B
:100DE80022000E087406BF3974068E00FD2EFD2EF3
:100DF800FD2E22000E10012F012F8E101C2F1C2FEC
:100E08001C2F20006D08F400F5017508003A03193D
:100E18000E2FAA2E7408003A03191C2F013A031941
:100E2800362E033A03196E2E013A0319AA2EAA2E5A
:100E38002000EA0108002100A80028080319252F2E
:100E4800262F3A2FA31F292F2A2F3A2F2009AA002D
:100E58002109AB002209AC002309AD00AA0A031935
:100E6800AB0A0319AC0A0319AD0A422F2308AD00D7
:100E78002208AC002108AB002008AA00230822049D
:100E880021042004031D492F4A2F542F0030A300AA
:100E98000030A2000030A1000030A000D32FD32FD3
:100EA8009630A4002408A900652F0130A400240866
:100EB800A9070130AD36AC0CAB0CAA0C890B5E2F20
:100EC800652FFE302D05031D6A2F6B2F592F802F9C
:100ED800802F0130A4002408A9070130AA07003098
:100EE800AB3D0030AC3D0030AD3D0130AD36AC0C13
:100EF800AB0CAA0C890B7A2FFF302D05031D852F0B
:100F0800862F6D2F922F922F0130A9020130AA351A
:100F1800AB0DAC0DAD0D890B8B2F922FAC1B952F04
:100F2800962F9D2F0230290203189B2F9C2F882F64
:100F38009D2F2918A02FA12FA92FFF30AA05FF3018
:100F4800AB057F30AC05FF30AD050310A90C2908AF
:100F5800A400A501A601A7011830A435A50DA60D6A
:100F6800A70D890BB12F2408AA042508AB0426086D
:100F7800AC042708AD0428080319C32FC42FCA2FAF
:100F8800A31FC72FC82FCA2FAD17CA2F2D08A3001C
:100F98002C08A2002B08A1002A08A000D32F0800C3
:100FA8002100A800A401A5012008A200A30122088D
:100FB800A6002308A700E02F281CE32FE42FE82F22
:100FC8002608A4072708A53D0130A635A70D890BDB
:100FD800E92F0310A80C2808031DF32FF42FE02F86
:100FE800F52F2508A1002408A000FA2F08001630C4
:080FF8002100970008005534A8
:10100400F1007108F00070082200EF002300B20123
:10101400B30108002000111022006B08F1006A08D7
:10102400F0009F31C527883101302300B20700301A
:10103400B33D3208F0003308F100F201F30100304F
:1010440088318720883173082000D7007208D600C1
:101054007108D5007008D40022006F082000E40055
:10106400E501E601E7016708F3006608F200650898
:10107400F1006408F000013088318720883173085A
:101084002000A7007208A6007108A5007008A4003B
:101094004130A3002030A2000030A1000030A000A5
:1010A40094314224883120002308C1002208C00062
:1010B4002108BF002008BE004130BD002030BC0024
:1010C4000030BB000030BA008B312A238831200065
:1010D4003D08DB003C08DA003B08D9003A08D80098
:1010E400933194238831031C7828792886289031F9
:1010F400002088312300B201B3010A302000E4004B
:1011040064082200EF0086280800F8007808031914
:101114008C288D28A128F31F90289128A1287009D4
:10112400FA007109FB007209FC007309FD00FA0A58
:101134000319FB0A0319FC0A0319FD0AA9287308F9
:10114400FD007208FC007108FB007008FA007308C7
:10115400720471047004031DB028B128BB28003048
:10116400F3000030F2000030F1000030F0003A29C2
:101174003A299630F4007408F900CC280130F400C0
:101184007408F9070130FD36FC0CFB0CFA0C890BD2
:10119400C528CC28FE307D05031DD128D228C028BF
:1011A400E728E7280130F4007408F9070130FA074A
:1011B4000030FB3D0030FC3D0030FD3D0130FD368C
:1011C400FC0CFB0CFA0C890BE128FF307D05031D98
:1011D400EC28ED28D428F928F9280130F902013047
:1011E400FA35FB0DFC0DFD0D890BF228F928FC1BCB
:1011F400FC28FD2804290230790203180229032956
:10120400EF2804297918072908291029FF30FA053D
:10121400FF30FB057F30FC05FF30FD050310F90CA2
:101224007908F400F501F601F7011830F435F50DED
:10123400F60DF70D890B18297408FA047508FB04D8
:101244007608FC047708FD04780803192A292B2959
:101254003129F31F2E292F293129FD1731297D0822
:10126400F3007C08F2007B08F1007A08F0003A29C8
:101274000800F600F901F801F701122B2100EF0133
:10128400EF0A292B092A20006F08A0002008E80093
:101294001B2A11109F315827893120006F08A000A4
:1012A4002008F90068080339A0002008ED00680848
:1012B400A0000230A036890B5C2920080339A10064
:1012C4002108EB00E3297C2979089F314E278931D5
:1012D4001B2A79088831022089311B2A1B2A72298A
:1012E40079089F314E278931790888310220893164
:1012F4001B2A1B2A20006D08A000A1012108003A26
:101304000319852972292008003A03191B2A013A76
:1013140003196629033A03196B29013A031972293F
:1013240072291B2AEE017908A0002008E9001B2A73
:101334007908A0002008EC00EA01EA0A8631352683
:1013440089311B2AF3302000A00020082200E9057F
:1013540086313526893179082000A0002008F20062
:101364006D0892311D22893120006D08A0002008EB
:101374002200E9041B2AFC302000A00020082200DF
:10138400E90586313526893179082000A000200836
:10139400F2006D0892311D22893120006D08A000F1
:1013A4000130A035FF3E031DD3292035A1002108BB
:1013B4002200E9041B2A1B2A8631352689311B2A7F
:1013C4001B2A20006808A0000430A036890BE729F6
:1013D40020080F39A100A2012208003A0319F329B9
:1013E400DE292108013A03197C29033A03199A29B1
:1013F400013A03199429073A0319A429013A031954
:10140400BD29033A03191B2ADE291B2A1B2A2100A2
:101414006F082000A000A1012108003A0319132A33
:101424004B292008003A03194B29013A031945298D
:101434004B292100EF01292B20006908A000063068
:10144400A036890B222A20080339A1002108F700BD
:10145400FF2AC42A2D2A23002C082000A0002300E0
:101464002D082000A10023002E082000A200230044
:101474002F082000A300FF30A4000030A5006E0850
:10148400A6000230A635FF3E031D442A2635890AEC
:101494004D2AA435A50D890B4B2A2408A70025083D
:1014A400A8000030A81BFF30A900AA002708A00547
:1014B4002808A1052908A2052A08A3056E08AB007F
:1014C4000230AB35FF3E031D632A2B35890A6E2A91
:1014D400A337A20CA10CA00C890B6A2A2008AC002B
:1014E4002C08F800780824009100D52A2300280845
:1014F4002000A000230029082000A10023002A08BE
:101504002000A20023002B082000A300FF30A40029
:101514000030A5006E08A6000230A635FF3E031D6C
:101524008F2A2635890A982AA435A50D890B962A6F
:101534002408A7002508A8000030A81BFF30A90034
:10154400AA002708A0052808A1052908A2052A0839
:10155400A3056E08AB000230AB35FF3E031DAE2A77
:101564002B35890AB92AA337A20CA10CA00C890B2C
:10157400B52A2008AC002C08F80078082400910053
:10158400D52AD52A20006D08A000A1012108003A1F
:101594000319CD2A2D2A2008013A03192D2A033ACA
:1015A4000319782A2D2A01302000A0002008EE0714
:1015B4000330A0002008EE05292BEC2AE12A2200A2
:1015C400660824009100292B22006508240091005C
:1015D400292B292B20006D08A000A1012108003A25
:1015E4000319F52AE12A2008013A0319E12A033AEA
:1015F4000319E62AE12A292B292B7708A000A10147
:101604002108003A0319072B292B2008003A031953
:10161400C42A013A0319EC2A292B292B292B292B1B
:1016240076082000A000A1012108003A03191B2B11
:10163400292B2008003A03194029013A03191E2ACC
:10164400033A0319092A013A0319292B292B080003
:1016540020003D088039C2004208C7003D35C20061
:101664004208CD00BC1F372B382B3A2B4D143A2B94
:101674004D0803193E2B3F2B4F2B4D0A031D432BC3
:10168400442B4D2B0030BD000030BC000030BB00AB
:101694000030BA004D2BBC17582B0030BD00003071
:1016A400BC000030BB000030BA00582B4108803920
:1016B400C2004208C7064135C2004208CC00C01F20
:1016C400642B652B672B4C14672B4C0803196B2B6D
:1016D4006C2B7C2B4C0A031D702B712B7A2B003046
:1016E400C1000030C0000030BF000030BE007A2BC3
:1016F400C017852B0030C1000030C0000030BF008F
:101704000030BE00852B4C080319892B8A2B902BA3
:101714004D08031D8E2B8F2B9A2B902B0030BD0070
:101724000030BC000030BB000030BA00942D942D72
:101734003A08C2004208F0004008913177218B3109
:1017440071082000D3007008D2005208C200C301FF
:10175400C401C5014508CB004408CA004308C900B8
:101764004208C8005308C200C301C401C5014508AA
:10177400D1004408D0004308CF004208CE003B0803
:10178400C2004208F0003F08913177218B31710883
:101794002000D3007008D2005208C200C301C40163
:1017A400C5014208C8074308C93D4408CA3D450865
:1017B400CB3D5308C200C301C401C5014208CE0792
:1017C4004308CF3D4408D03D4508D13D3C08C20004
:1017D4004208F0003E08913177218B3171082000D6
:1017E400D3007008D2005208C200C301C401C5016D
:1017F4004208C8074308C93D4408CA3D4508CB3DD3
:101804005308C200C301C401C5014208CE074308FE
:10181400CF3D4408D03D4508D13D0830C835C90DF9
:10182400CA0DCB0D890B102C3B08C2004208F000F6
:101834003E08913177218B3171082000D300700864
:10184400D2005208C8075308C93D0030CA3DCB3DF9
:101854003A08C2004208F0003F08913177218B31E9
:1018640071082000D3007008D2005208C80753083A
:10187400C93D0030CA3DCB3D0830C835C90DCA0D3D
:10188400CB0D890B3F2C3A08C2004208F0003E08F9
:10189400913177218B3171082000D3007008D20078
:1018A4005208C8075308C93D0030CA3DCB3D3B0828
:1018B400C2004208F0004008913177218B31710851
:1018C4002000D3007008D2005208CE075308CF3D41
:1018D4000030D03DD13D3C08C2004208F0003F0832
:1018E400913177218B3171082000D3007008D20028
:1018F4005208CE075308CF3D0030D03DD13D3C08BF
:10190400C2004208F0004008913177218B31710800
:101914002000D3007008D2005208C2005308C3004C
:10192400C401C5010830C235C30DC40DC50D890BF2
:10193400952C4208CE074308CF3D4408D03D4508C6
:10194400D13D4808C2004908C3004A08C4004B08F6
:10195400C5001830C536C40CC30CC20C890BAC2CA2
:101964004208CE074308CF3D4408D03D4508D13D49
:101974000830C835C90DCA0DCB0D890BBB2C4D08D9
:101984004C07C200C301C30D4208823ED200FF309F
:10199400433DD300E62C0130CE35CF0DD00DD10D13
:1019A400890BCE2CCB1FD72CD82CDA2C4E14DA2C46
:1019B4000130C835C90DCA0DCB0D890BDB2CFF30A6
:1019C400D207FF30D33DE62CD01FE92CEA2CCD2CD6
:1019D400EB2CCC01CB1FEF2CF02C102DFF30480545
:1019E400C200FF304905C300FF304A05C4007F3000
:1019F4004B05C50045084404430442040319032D60
:101A0400042D072DCC01CC0A102D4E1C0A2D0B2DB4
:101A1400102DCC01CC0A102D102D102D4C080319BB
:101A2400142D152D3F2D0130CE070030CF3D003051
:101A3400D03D0030D13D511C202D212D3F2D4E088D
:101A4400C2004F08C3005008C4005108C50001304B
:101A5400C600C537C40CC30CC20CC60B2B2D4508DD
:101A6400D1004408D0004308CF004208CE00013022
:101A7400D2070030D33D3F2D3F2D5308803AC2009A
:101A840080304202031D482DFF305202031C4B2DAF
:101A94004C2D562D7F302000D1008030D0000030F6
:101AA400CF000030CE00872D20005308803AC200BA
:101AB40080304202031D602D013052020318632D51
:101AC400642D6F2D00302000D1000030D000003094
:101AD400CF000030CE00C701872D20005208C2007D
:101AE4004208CD00FF30CE05FF30CF057F30D00552
:101AF4000030D1054D1C7F2D802D822DD017822DD5
:101B04004D36C2004208D100872D4708C200420862
:101B1400D1045108BD005008BC004F08BB004E085A
:101B2400BA00942D080021004B088039D0005008D9
:101B3400D5004B35D0005008DB00CA1FA22DA32DC1
:101B4400A52D5B14A52D5B080319A92DAA2DBA2D6B
:101B54005B0A031DAE2DAF2DB82D0030CB00003035
:101B6400CA000030C9000030C800B82DCA17C32D00
:101B74000030CB000030CA000030C9000030C8007B
:101B8400C32D4F088039D0005008D5064F35D000FA
:101B94005008DA00CE1FCF2DD02DD22D5A14D22DBD
:101BA4005A080319D62DD72DE72D5A0A031DDB2D0C
:101BB400DC2DE52D0030CF000030CE000030CD000C
:101BC4000030CC00E52DCE17F02D0030CF000030D2
:101BD400CE000030CD000030CC00F02D5A0803199F
:101BE400F42DF52DFB2D5B08031DF92DFA2D052E83
:101BF400FB2D0030CB000030CA000030C90000309B
:101C0400C800FF2FFF2F4808D0005008A0004E083E
:101C14008731D4278D3121002108E1002008E0001C
:101C24006008D000D101D201D3015308D900520871
:101C3400D8005108D7005008D6006108D000D1015F
:101C4400D201D3015308DF005208DE005108DD0041
:101C54005008DC004908D0005008A0004D08873126
:101C6400D4278D3121002108E1002008E00060081C
:101C7400D000D101D201D3015008D6075108D73D75
:101C84005208D83D5308D93D6108D000D101D20192
:101C9400D3015008DC075108DD3D5208DE3D5308EE
:101CA400DF3D4A08D0005008A0004C088731D427F3
:101CB4008D3121002108E1002008E0006008D000F7
:101CC400D101D201D3015008D6075108D73D52089B
:101CD400D83D5308D93D6108D000D101D201D301C8
:101CE4005008DC075108DD3D5208DE3D5308DF3D56
:101CF4000830D635D70DD80DD90D890B7B2E490860
:101D0400D0005008A0004C088731D4278D31210021
:101D14002108E1002008E0006008D6076108D73DEB
:101D24000030D83DD93D4808D0005008A0004D08E7
:101D34008731D4278D3121002108E1002008E000FB
:101D44006008D6076108D73D0030D83DD93D08303A
:101D5400D635D70DD80DD90D890BAA2E4808D00039
:101D64005008A0004C088731D4278D312100210868
:101D7400E1002008E0006008D6076108D73D003084
:101D8400D83DD93D4908D0005008A0004E088731FD
:101D9400D4278D3121002108E1002008E0006008EB
:101DA400DC076108DD3D0030DE3DDF3D4A08D00040
:101DB4005008A0004D088731D4278D312100210817
:101DC400E1002008E0006008DC076108DD3D003028
:101DD400DE3DDF3D4A08D0005008A0004E088731A0
:101DE400D4278D3121002108E1002008E00060089B
:101DF400D0006108D100D201D3010830D035D10D13
:101E0400D20DD30D890B002F5008DC075108DD3D9E
:101E14005208DE3D5308DF3D5608D0005708D10074
:101E24005808D2005908D3001830D336D20CD10C3C
:101E3400D00C890B172F5008DC075108DD3D5208E0
:101E4400DE3D5308DF3D0830D635D70DD80DD90D0A
:101E5400890B262F5B085A07D000D101D10D5008F9
:101E6400823EE000FF30513DE100512F0130DC356E
:101E7400DD0DDE0DDF0D890B392FD91F422F432FC6
:101E8400452F5C14452F0130D635D70DD80DD90D0B
:101E9400890B462FFF30E007FF30E13D512FDE1F55
:101EA400542F552F382F562FDA01D91F5A2F5B2F55
:101EB4007B2FFF305605D000FF305705D100FF308F
:101EC4005805D2007F305905D300530852045104F9
:101ED400500403196E2F6F2F722FDA01DA0A7B2F49
:101EE4005C1C752F762F7B2FDA01DA0A7B2F7B2F70
:101EF4007B2F5A0803197F2F802FAA2F0130DC076C
:101F04000030DD3D0030DE3D0030DF3D5F1C8B2FB7
:101F14008C2FAA2F5C08D0005D08D1005E08D20087
:101F24005F08D3000130D400D337D20CD10CD00CCD
:101F3400D40B962F5308DF005208DE005108DD0051
:101F44005008DC000130E0070030E13DAA2FAA2F41
:101F54006108803AD00080305002031DB32FFF3057
:101F64006002031CB62FB72FC12F7F302100DF0082
:101F74008030DE000030DD000030DC00F22F210074
:101F84006108803AD00080305002031DCB2F01300D
:101F940060020318CE2FCF2FDA2F00302100DF008C
:101FA4000030DE000030DD000030DC00D501F22F0F
:101FB40021006008D0005008DB00FF30DC05FF3052
:101FC400DD057F30DE050030DF055B1CEA2FEB2FDB
:101FD400ED2FDE17ED2F5B36D0005008DF00F22F17
:101FE4005508D0005008DF045F08CB005E08CA0023
:101FF4005D08C9005C08C800FF2F080023003608EC
:1020040037040319062807280D2837088A003608DC
:102014000A0090310D2808007108F3007008F200DE
:10202400F336F20CF336F20C72082C0092007008AE
:102034000339F2000530F235FF3E031D1D287235C9
:10204400910008007108F3007008F200F336F20CF6
:10205400F336F20C72082C00950070080339F20074
:102064000530F235FF3E031D332872359400080015
:1020740021001508C0391538950006302000950058
:1020840006302100A20022082200EC000B118B165E
:10209400D7302100A0001F30A1009F313C27903190
:1020A400080020008C1E572858286228FF3023007F
:1020B400AC07FF30AD3DFF30AE3DFF30AF3D6C2887
:1020C40001302300AC070030AD3D0030AE3D0030A0
:1020D400AF3D6C28080020000C1E712872287C2853
:1020E400FF302300AC07FF30AD3DFF30AE3DFF3085
:1020F400AF3D862801302300AC070030AD3D0030F1
:10210400AE3D0030AF3D8628080020008D1F8B288F
:102114008C289628FF302300A807FF30A93DFF3004
:10212400AA3DFF30AB3DA02801302300A8070030B2
:10213400A93D0030AA3D0030AB3DA0280800200096
:102144008D1EA528A628B028FF302300A807FF303D
:10215400A93DFF30AA3DFF30AB3DBA280130230032
:10216400A8070030A93D0030AA3D0030AB3DBA2895
:102174000800200099013C309700B0309600170801
:102184002200EB00200016082200EA0020001110B3
:1021940021001114EB30A0001F30A1009F3145270E
:1021A400903131302000980008009131D6219031CF
:1021B4009E31ED2690318731FB2790319F31B42732
:1021C40090319E31F32690319E31FF2690319F311C
:1021D400072790319031BB20903190313A209031D3
:1021E400080021006E082200A10021006D082200D1
:1021F400A000A136A00CA136A00C20082C0092004F
:1022040021006D0803392200A0000530A035FF3EEF
:10221400031D082920352C009100080021006E08B8
:102224002200A10021006D082200A000A136A00C0C
:10223400A136A00C20082C00950021006D0803395C
:102244002200A0000530A035FF3E031D25292035BE
:102254002C00940008002700131E31293229362946
:102264009F317427913136292700931E3A293B293F
:102274003F299F31842791313F292700961E432906
:10228400442948299F319427913148292700961FD2
:102294004C294D2951299F31A427913151290800F6
:1022A40021006E08803A2200A00080302002031D25
:1022B4005E29013021006D02031861296229752904
:1022C40021006D092200A00021006E092200A10056
:1022D400A00A0319A10A20082100ED002200210808
:1022E4002100EE00762976290800F800F401F501B2
:1022F4007008F200F3017208F6007308F7008229EF
:10230400781C852986298A297608F4077708F53DFB
:102314000130F635F70D890B8B290310F80C78087A
:10232400031D95299629822997297508F1007408B7
:10233400F0009C2908005530FA007A08FB002000C0
:10234400911124001108FA007A08FB00141DAB292E
:10235400AC29BF29941EAF29B029B929161FB32966
:10236400B429B929033089313B219131D329013072
:1023740089313B219131D329D329941AC229C32904
:10238400C829003089313B219131D3297B08FA00D7
:102394007A082000EF00023089313B219131D329A2
:1023A400D32924001516080022008C018D01403029
:1023B4008E003B3021008C00F0308D008E018F3078
:1023C40023008E008D0107308C0024008D018C01C8
:1023D4002100951722009D01270013129312121257
:1023E400921211169116961296139512951394162D
:1023F400941753302100A0001030A1009F311827FA
:1024040091316D302100A0001030A1009F312127AF
:10241400913187302100A0001030A1009F312A277C
:102424009131A1302100A0001030A1009F31332749
:1024340091318B150800F500722A7208F3007308B5
:102444002200E80023002F08A7002E08A6002D086C
:10245400A5002C08A4002200E601E60A9F310F27FC
:102464009231882A7208F30073082200E7002300DF
:102474002B08A3002A08A2002908A1002808A0000C
:102484002200E501E50A9F3158279231882A882ADB
:102494004B2A7208F30073082200E8007208F30064
:1024A4007308E70023002F08A7002E08A6002D08B4
:1024B400A5002C08A4002B08A3002A08A2002908C0
:1024C400A1002808A0002200E601E60AE501E50AC9
:1024D4009F31582792319F310F279231882A882AB9
:1024E4007508F300F4017408003A03197A2A4B2A98
:1024F4007308003A0319882A013A03191F2A033A78
:102504000319342A013A03194B2A4B2A08000B11E8
:1025140022006C082000950001302300B007003031
:10252400B13D3008F0003108F100F201F301003050
:1025340088318720923173082000D7007208D600B2
:102544007108D5007008D40022006E082000E40051
:10255400E501E601E7016708F3006608F200650893
:10256400F1006408F000013088318720923173084B
:102574002000A7007208A6007108A5007008A40036
:102584004130A3002030A2000030A1000030A000A0
:1025940094314224923120002308C1002208C00053
:1025A4002108BF002008BE004330BD007A30BC00C3
:1025B4000030BB000030BA008B312A239231200056
:1025C4003D08DB003C08DA003B08D9003A08D80093
:1025D400933194239231031CF02AF12AFE2A9F316D
:1025E400662792312300B001B1010A302000E400D3
:1025F40064082200EE00FE2A080021006208E600BA
:102604006308E7006408E8006508E9000310680D42
:10261400690DEA006A08EC006C08031D122B132BE9
:102624001D2B0030E5000030E4000030E3000030F2
:10263400E200932B932B6208E6006308E70064082A
:10264400E8006508E9001F30E936E80CE70CE60C01
:10265400890B262B6608EA006A08EB00E417FF30B2
:10266400E205FF30E305FF30E4050030E505963070
:10267400EC02EC1F3E2B3F2B622B6C08803A973EFA
:102684000318452B462B512B0030E5000030E400A5
:102694000030E3000030E200932B932B512B0130E8
:1026A400E536E40CE30CE20C890B522B0130E60016
:1026B4006608EC07031D5F2B602B512B832B832BA8
:1026C40020306C02031C672B682B7C2B0030E50048
:1026D4000030E4000030E3000030E200932B932B41
:1026E4007C2B0130E235E30DE40DE50D890B742BF1
:1026F4000130EC026C08031D802B812B732B832B80
:10270400832B6B080319872B882B932BE209E3098E
:10271400E409E509E20A0319E30A0319E40A0319BF
:10272400E50A0800003020005405DC00003055059F
:10273400DD0080305605DE007F305705DF005F087E
:102744005E045D045C04031DA82BA92BB12B00308F
:10275400D7000030D6000030D5000030D40000305F
:102764005805DC0000305905DD0080305A05DE00D4
:102774007F305B05DF005F085E045D045C04031DBD
:10278400C42BC52BCE2B0030DB000030DA00003028
:10279400D9000030D800CE2BD71FD12BD22BFA2B47
:1027A4000030DC000030DD000030DE008030DF006F
:1027B4005409E0005509E1005609E2005709E30015
:1027C400E00A0319E10A0319E20A0319E30A60089B
:1027D400DC076108DD3D6208DE3D6308DF3D5F081C
:1027E400D7005E08D6005D08D5005C08D400FA2B3B
:1027F400DB1FFD2BFE2B262C0030DC000030DD001F
:102804000030DE008030DF005809E0005909E100A3
:102814005A09E2005B09E300E00A0319E10A03191B
:10282400E20A0319E30A6008DC076108DD3D620877
:10283400DE3D6308DF3D5F08DB005E08DA005D080B
:10284400D9005C08D800262C8030D7068030DB06FF
:102854005B085702031D382C5A085602031D382CF6
:1028640059085502031D382C5808540203183B2CF0
:102874003C2C3E2C0310412C0314412C412C080009
:10288400200027088039A8002808B1002735A800AF
:102894002808B800A61F4F2C502C522C3814522C48
:1028A40038080319562C572C682C380A031D5B2C46
:1028B4005C2C652C0030A7000030A6000030A50079
:1028C4000030A400652CA617A701712C0030A700C6
:1028D4000030A6000030A5000030A400712C2308AD
:1028E4008039A8002808B1062335A8002808B900B3
:1028F400A21F7D2C7E2C802C3914802C39080319BE
:10290400842C852C962C390A031D892C8A2C932C13
:102914000030A3000030A2000030A1000030A0006D
:10292400932CA217A3019E2C0030A3000030A20018
:102934000030A1000030A000230822042104200458
:10294400031DA52CA62CC02C0030A7000030A60027
:102954000030A5000030A4008030A6047F30A70416
:102964003108A8002808A7042708A3002608A20005
:102974002508A1002408A000202E202E3808031DBD
:10298400C42CC52CD72C0030A7000030A600003082
:10299400A5000030A4002708A3002608A2002508EB
:1029A400A1002408A000202E202E3908A800A90187
:1029B400A809A909A80A0319A90A38082807AA0016
:1029C40029080318290AAB002A087F3EB200003008
:1029D4002B3DB3002708B0002608AF002508AE0041
:1029E4002408AD000030A7000030A6000030A50088
:1029F4000030A4000030B7000030B6000030B5004D
:102A04000030B400B901482D390803190A2D0B2DE3
:102A1400272D0130AD35AE0DAF0DB00D890B0C2D4A
:102A24000130A435A50DA60DA70D890B132DB71FD5
:102A34001C2D1D2D1F2D24141F2D0130B435B50D53
:102A4400B60DB70D890B202D272D23083002031D49
:102A5400352D22082F02031D352D21082E02031DBA
:102A6400352D20082D02031C382D392D432D371701
:102A74002008AD022108AE3B2208AF3B2308B03B3F
:102A8400432D0130A8002808B907482D1A3039020F
:102A9400031C4D2D4E2D062D4F2D30082F042E04D2
:102AA4002D040319562D572D732D3414732D732DA6
:102AB4000130A435A50DA60DA70D890B5B2DB71FFD
:102AC400642D652D672D2414672D0130B435B50DA3
:102AD400B60DB70D890B682DFF30B207FF30B33D3B
:102AE400732DA61F762D772D5A2D782DB901B71F7A
:102AF4007C2D7D2D9D2DFF303405A800FF3035053C
:102B0400A900FF303605AA007F303705AB002B083B
:102B14002A04290428040319902D912D942DB90118
:102B2400B90A9D2D241C972D982D9D2DB901B90A04
:102B34009D2D9D2D9D2D39080319A12DA22DCC2D40
:102B44000130A4070030A53D0030A63D0030A73D6C
:102B5400271CAD2DAE2DCC2D2408A8002508A900D6
:102B64002608AA002708AB000130AC00AB37AA0C3A
:102B7400A90CA80CAC0BB82D2B08A7002A08A6009A
:102B84002908A5002808A4000130B2070030B33D8D
:102B9400CC2DCC2D3308803AA80080302802031DA8
:102BA400D52DFF303202031CD82DD92DE62DFF3050
:102BB4002000B2000030B3000030A7000030A600AF
:102BC4000030A5000030A40020003308803AA8009B
:102BD40080302802031DF02D013032020318F32D3A
:102BE400F42D002E2000B201B3010030A700003004
:102BF400A6000030A5000030A400B1012000320876
:102C0400A8002808B800381C082E092E0B2EA61779
:102C14000F2E7F30A8002808A6053836A8002808FB
:102C2400A7003108A8002808A7042708A30026083D
:102C3400A2002508A1002408A000202E08002100DD
:102C440035088039B6003608BF003535B600360879
:102C5400C600B41F2E2E2F2E312E4614312E4608B8
:102C64000319352E362E472E460A031D3A2E3B2EC7
:102C7400442E0030B5000030B4000030B300003002
:102C8400B200442EB417B501502E0030B500003008
:102C9400B4000030B3000030B200502E3108803947
:102CA400B6003608BF063135B6003608C700B01F77
:102CB4005C2E5D2E5F2E47145F2E47080319632E8A
:102CC400642E752E470A031D682E692E722E00305D
:102CD400B1000030B0000030AF000030AE00722E02
:102CE400B017B1017D2E0030B1000030B0000030CB
:102CF400AF000030AE00310830042F042E04031D51
:102D0400842E852E9F2E0030B5000030B400003094
:102D1400B3000030B2008030B4047F30B5043F0803
:102D2400B6003608B5043508B1003408B0003308DD
:102D3400AF003208AE00FF2FFF2F4608031DA32E5D
:102D4400A42EB62E0030B5000030B4000030B3001D
:102D54000030B2003508B1003408B0003308AF00C9
:102D64003208AE00FF2FFF2F4708B600B701B6099F
:102D7400B709B60A0319B70A46083607B800370870
:102D84000318370AB90038087F3EC0000030393DC7
:102D9400C1003508BE003408BD003308BC00320849
:102DA400BB000030B5000030B4000030B300003088
:102DB400B2000030C5000030C4000030C300003051
:102DC400C200C701272F47080319E92EEA2E062F50
:102DD4000130BB35BC0DBD0DBE0D890BEB2E013092
:102DE400B235B30DB40DB50D890BF22EC51FFB2EF4
:102DF400FC2EFE2E3214FE2E0130C235C30DC40D3E
:102E0400C50D890BFF2E062F31083E02031D142F1A
:102E140030083D02031D142F2F083C02031D142FFC
:102E24002E083B02031C172F182F222F45172E089C
:102E3400BB022F08BC3B3008BD3B3108BE3B222FF0
:102E44000130B6003608C707272F1A304702031C83
:102E54002C2F2D2FE52E2E2F3E083D043C043B0441
:102E64000319352F362F522F4214522F522F01306F
:102E7400B235B30DB40DB50D890B3A2FC51F432FD1
:102E8400442F462F3214462F0130C235C30DC40DD2
:102E9400C50D890B472FFF30C007FF30C13D522FAE
:102EA400B41F552F562F392F572FC701C51F5B2F1E
:102EB4005C2F7C2FFF304205B600FF304305B7007E
:102EC400FF304405B8007F304505B900390838049F
:102ED4003704360403196F2F702F732FC701C70AE5
:102EE4007C2F321C762F772F7C2FC701C70A7C2FAB
:102EF4007C2F7C2F47080319802F812FAB2F0130A3
:102F0400B2070030B33D0030B43D0030B53D351C50
:102F14008C2F8D2FAB2F3208B6003308B70034083E
:102F2400B8003508B9000130BA00B937B80CB70C8D
:102F3400B60CBA0B972F3908B5003808B400370817
:102F4400B3003608B2000130C0070030C13DAB2FDA
:102F5400AB2F4108803AB60080303602031DB42FEF
:102F6400FF304002031CB72FB82FC52FFF302100BC
:102F7400C0000030C1000030B5000030B4000030A3
:102F8400B3000030B20021004108803AB60080301E
:102F94003602031DCF2F013040020318D22FD32F46
:102FA400DF2F2100C001C1010030B5000030B400A2
:102FB4000030B3000030B200BF0121004008B60069
:102FC4003608C600461CE72FE82FEA2FB417EE2F69
:102FD4007F30B6003608B4054636B6003608B5006C
:102FE4003F08B6003608B5043508B1003408B0000F
:0C2FF4003308AF003208AE00FF2F0800C9
:103DD4004B340134013478302100990022009601DB
:103DE4000800C0302C009300920191010800640087
:103DF40080010131890BFA2E0034C0302C0096006A
:103E0400C7309500C03094000800C73020009B00E4
:103E14009A01911004309C00080022006C082000D4
:103E240095002300B001B1018B1608002100210880
:103E34002300BF00210020082300BE000800210049
:103E440021082300BD00210020082300BC00080035
:103E5400210021082300BB00210020082300BA0010
:103E64000800210021082300B900210020082300B4
:103E7400B8000800210021082300B5002100200813
:103E84002300B4000800210021082300B70021000A
:103E940020082300B6000800F1007108F000700843
:103EA4002200EE002300B001B101080022006B08DB
:103EB400F1006A08F0009F31C5279F312300B20149
:103EC400B301210011140800230034083504031938
:103ED4006C2F6D2F732F35088A0034080A009F3128
:103EE400732F080023003E083F0403197A2F7B2F09
:103EF400812F3F088A003E080A009F31812F270046
:103F04001312080023003C083D0403198A2F8B2F49
:103F1400912F3D088A003C080A009F31912F270009
:103F24009312080023003A083B0403199A2F9B2F8D
:103F3400A12F3B088A003A080A009F31A12F2700CD
:103F4400961208002300380839040319AA2FAB2F4E
:103F5400B12F39088A0038080A009F31B12F270091
:103F64009613080080302400940026309500013018
:103F7400960097017F309300083092002000911141
:103F84002100911508002000181DC92FCA2FD12F18
:103F9400181071089700700896001814D62F71082D
:103FA400970070089600D62F08000030F000F1004A
:103FB40090310E209F31DE2F22000E14E12FF530B8
:103FC400F4007408E9050230F4007408E6008B126A
:103FD40008000030F000F100903124209F31F22FCE
:103FE40022008E14F52FFA30F4007408E90502302B
:0C3FF400F4007408E50021001110080022
:020000040001F9
:04000E00E4FFFFFF0D
:00000001FF
