:020000040000FA
:1000000080314628013401347E1480318B1E09284A
:100010000A2812280B1D0D280E2812289D3146256E
:10002000803144288B1D152816281E280B1C1928E2
:100030001A281E289C316324803144280B1F212854
:10004000222844282100911D262827283028200016
:10005000911D2B282C2830289D310D2580314428D6
:100060002100111C3428352844282000111C39286F
:100070003A2844289E313426803144284428442894
:1000800044284428442844287E1009008031482808
:10009000903100208031EF00220080310220803139
:1000A000E300803103208031E400230090310120FF
:1000B0008031EA00903102208031EB009031032042
:1000C0008031EC00683084000030850007309A31C0
:1000D0002A228031433084000130850011309A316A
:1000E0002A228031E13084000130850009309A31C4
:1000F0002A2280317E10200080317E289C312A24E3
:100100008031822822008E1785288B170B17230039
:10011000C0010030BB000030BA000030B900003030
:10012000B8000030BF000030BE000030BD0000301D
:10013000BC000030CC000030CB000030CA000030E2
:10014000C9000030D0000030CF000030CE000030B9
:10015000CD00AA2869080319AE28AF289A2F610894
:100160002200B500230062082200B60023006308C5
:100170002200B700230064082200B8004709B90034
:100180004809BA004909BB004A09BC00B90A031969
:10019000BA0A0319BB0A0319BC0A3908B5073A0899
:1001A000B63D3B08B73D3C08B83DB509B609B709AF
:1001B000B809B50A0319B60A0319B70A0319B80A28
:1001C000230068082200BD00BE01BD35BE0DBD354F
:1001D000BE0D3D08BF003E08C0000030C01BFF3010
:1001E000C100C2003F08B5074008B63D4108B73D11
:1001F0004208B83D38082300D40022003708230005
:10020000D300220036082300D20022003508230044
:10021000D10022004B08B5004C08B6004D08B700CD
:100220004E08B8004309B9004409BA004509BB00AB
:100230004609BC00B90A0319BA0A0319BB0A031913
:10024000BC0A3908B5073A08B63D3B08B73D3C083B
:10025000B83DB509B609B709B809B50A0319B60A10
:100260000319B70A0319B80A230067082200BD0062
:10027000BE01BD35BE0DBD35BE0D3D08BF003E08FB
:10028000C0000030C01BFF30C100C2003F08B507EE
:100290004008B63D4108B73D4208B83D3808230044
:1002A000D800220037082300D70022003608230098
:1002B000D600220035082300D50051082200B500E1
:1002C000230052082200B600230053082200B70082
:1002D000230054082200B800230038092200B90086
:1002E000230039092200BA0023003A092200BB008A
:1002F00023003B092200BC00B90A0319BA0A0319FA
:10030000BB0A0319BC0A3908B5073A08B63D3B08D1
:10031000B73D3C08B83D38082100A300220037084B
:100320002100A200220036082100A1002200350889
:100330002100A0000030A7000030A6000030A5007A
:100340006430A4009C31D52480312100230823008F
:10035000A300210022082300A2002100210823007D
:10036000A100210020082300A00055082200B500AC
:10037000230056082200B600230057082200B700C9
:10038000230058082200B80023003C092200B900CD
:1003900023003D092200BA0023003E092200BB00D1
:1003A00023003F092200BC00B90A0319BA0A031945
:1003B000BB0A0319BC0A3908B5073A08B63D3B0821
:1003C000B73D3C08B83D38082100A300220037089B
:1003D0002100A200220036082100A10022003508D9
:1003E0002100A0000030A7000030A6000030A500CA
:1003F0006430A4009C31D5248031210023082300DF
:10040000A700210022082300A600210021082300C4
:10041000A500210020082300A4004A082100A10013
:10042000230049082100A0009C314624803121008E
:100430002108803A2200B5008B303502031D232AA3
:10044000B930210020020318262A272A312A230046
:100450004C08AB004B08AA004A08A9004908A800AC
:10046000492A2300CC1F352A362A3B2A4830B000BF
:10047000F430B1003F2A0130B0000030B100300844
:10048000A8003108A900890D893B8909AA00AB00A1
:10049000492A4E082100A10023004D082100A00098
:1004A0009C314624803121002108803A2200B50089
:1004B0008B303502031D5F2AB9302100200203185A
:1004C000622A632A6D2A23005008AF004F08AE004D
:1004D0004E08AD004D08AC00842A2300D01F712ABD
:1004E000722A772A4830B200F430B3007B2A0130F8
:1004F000B2000030B3003208AC003308AD00890D03
:10050000893B8909AE00AF005408BB005308BA000C
:100510005208B9005108B8005808BF005708BE007B
:100520005608BD005508BC005108C9075208CA3D0D
:100530005308CB3D5408CC3D5508CD075608CE3D59
:100540005708CF3D5808D03D690803390319A92A37
:10055000AA2ABB2F6C082200B500B601B701B8016A
:1005600038082100A300220037082100A200220041
:1005700036082100A100220035082100A00001302A
:100580009031B820803121002308B5002208B40042
:100590002108B3002008B2004230B100FA30B000A8
:1005A0000030AF000030AE0094313624803121009D
:1005B0003108CF003008CE002F08CD002E08CC0027
:1005C000230054082100A300230053082100A200A7
:1005D000230052082100A100230051082100A0009F
:1005E00001309031B820803121002308CB0022084F
:1005F000CA002108C9002008C8008A31B62280310B
:1006000021004B08E9004A08E8004908E7004808CB
:10061000E60023006B082200B900BA01BB01BC014F
:100620003C082100A30022003B082100A200220078
:100630003A082100A100220039082100A000013061
:100640009031B820803121002308B5002208B40081
:100650002108B3002008B2004330B1007F30B00061
:100660000030AF000030AE009431362480312100DC
:100670003108CF003008CE002F08CD002E08CC0066
:10068000230023082100A300230022082100A20048
:10069000230021082100A100230020082100A00040
:1006A00001309031B820803121002308CB0022088E
:1006B000CA002108C9002008C8008A31B62280314A
:1006C00021004B08E5004A08E4004908E300480817
:1006D000E2008D3121258031210065082300C4000E
:1006E000210064082300C300210063082300C20026
:1006F000210062082300C10044082100E900230012
:1007000043082100E800230042082100E7002300FD
:1007100041082100E60023006A082200B500B60166
:10072000B701B80138082100A300220037082100D2
:10073000A200220036082100A10022003508210075
:10074000A00001309031B820803121002308B5008D
:100750002208B4002108B3002008B2004330B100E1
:100760007F30B0000030AF000030AE00943136244E
:10077000803121003108CF003008CE002F08CD0095
:100780002E08CC0023002B082100A30023002A08F8
:100790002100A200230029082100A100230028082D
:1007A0002100A00001309031B820803121002308C1
:1007B000CB002208CA002108C9002008C8008A31DD
:1007C000B622803121004B08E5004A08E4004908C0
:1007D000E3004808E2008D312125803121006508C1
:1007E0002300C800210064082300C700210063081B
:1007F0002300C600210062082300C500480821002C
:10080000E900230047082100E800230046082100F2
:10081000E700230045082100E6004230E500C8302B
:10082000E4000030E3000030E2008D31212580310A
:10083000210065082200AF00210064082200AE00FC
:10084000210063082200AD00210062082200AC00F4
:100850009E31AF26803122002F082300DC002200C9
:100860002E082300DB0022002D082300DA002200DE
:100870002C082300D9005A082100A10023005908A0
:100880002100A0009C314624803121002108803ABB
:100890002200B50084303502031D512C00302100A8
:1008A0002002031C542C552C6D2C2300DC1F592CCA
:1008B0005A2C5F2C0130B400FC30B500632C0130A1
:1008C000B4000030B5003408D9003508DA00890DCD
:1008D000893B8909DB00DC006D2C23006C082200B9
:1008E000B500B601B701B80138082100A300220005
:1008F00037082100A200220036082100A1002200B2
:1009000035082100A00001309031B820803121004D
:100910002308B5002208B4002108B3002008B20063
:100920004230B100FA30B0000030AF000030AE000D
:1009300094313624803121003108CF003008CE00B8
:100940002F08CD002E08CC00230058082100A3005A
:10095000230057082100A200230056082100A1000F
:10096000230055082100A00001309031B8208031CB
:1009700021002308CB002208CA002108C900200852
:10098000C8008A31B622803121004B08E9004A08AC
:10099000E8004908E7004808E60023006B08220049
:1009A000B900BA01BB01BC013C082100A300220030
:1009B0003B082100A20022003A082100A1002200E9
:1009C00039082100A00001309031B8208031210089
:1009D0002308B5002208B4002108B3002008B200A3
:1009E0004330B1007F30B0000030AF000030AE00C7
:1009F00094313624803121003108CF003008CE00F8
:100A00002F08CD002E08CC00230027082100A300CA
:100A1000230026082100A200230025082100A100B0
:100A2000230024082100A00001309031B82080313B
:100A300021002308CB002208CA002108C900200891
:100A4000C8008A31B622803121004B08E5004A08EF
:100A5000E4004908E3004808E2008D312125803197
:100A6000210065082300C400210064082300C3009E
:100A7000210063082300C200210062082300C10096
:100A800044082100E900230043082100E800230076
:100A900042082100E700230041082100E60023006E
:100AA0006A082200B500B601B701B8013808210074
:100AB000A300220037082100A200220036082100EE
:100AC000A100220035082100A00001309031B8209B
:100AD000803121002308B5002208B4002108B300AA
:100AE0002008B2004330B1007F30B0000030AF00CA
:100AF0000030AE0094313624803121003108CF001F
:100B00003008CE002F08CD002E08CC0023002F087F
:100B10002100A30023002E082100A20023002D089D
:100B20002100A10023002C082100A00001309031F9
:100B3000B820803121002308CB002208CA002108F8
:100B4000C9002008C8008A31B622803121004B0834
:100B5000E5004A08E4004908E3004808E2008D3156
:100B600021258031210065082300C8002100640888
:100B70002300C700210063082300C600210062088B
:100B80002300C50048082100E90023004708210090
:100B9000E800230046082100E70023004508210063
:100BA000E6004230E500C830E4000030E3000030E9
:100BB000E2008D3121258031210065082200AF003F
:100BC000210064082200AE00210063082200AD006D
:100BD000210062082200AC009E31AF268031220045
:100BE0002F082300E00022002E082300DF0022004F
:100BF0002D082300DE0022002C082300DD005E0803
:100C00002100A10023005D082100A0009C314624A2
:100C1000803121002108803A2200B500843035025D
:100C2000031D152E003021002002031C182E192E42
:100C3000822F2300E01F1D2E1E2E232E0130B60012
:100C4000FC30B700272E0130B6000030B700360860
:100C5000DD003708DE00890D893B8909DF00E000EF
:100C6000822F822F2300DC1B432E5C08031D442EA1
:100C70005B08031D442E5A08031D442E01305902FF
:100C8000031C432E442E532E22000E12472E230007
:100C90005A082100A100230059082100A0009B311F
:100CA000752380316C2E22000E16562E2300590912
:100CB0002200B50023005A092200B600B50A031924
:100CC000B60A35082100A000220036082100A10044
:100CD0009B31752380316C2E2300D41B7E2E54084B
:100CE000031D7D2E5308031D7D2E5208031D7D2EEE
:100CF0001430510203187D2E7E2EBB2F03302200AC
:100D0000B50035082300E600BB2FBB2F2300E01BF6
:100D1000972E6008031D982E5F08031D982E5E080D
:100D2000031D982E01305D02031C972E982EA72ECE
:100D300022000E139B2E23005E082100A100230039
:100D40005D082100A0009B318E238031C02E22003F
:100D50000E17AA2E23005D092200B50023005E09AC
:100D60002200B600B50A0319B60A35082100A00012
:100D7000220036082100A1009B318E238031C02E35
:100D80002300D81BD22E5808031DD12E5708031D4F
:100D9000D12E5608031DD12E143055020318D12E22
:100DA000D22EBB2F03302200B50035082300E5000A
:100DB000BB2FBB2F2300DC1BEB2E5C08031DEC2E8E
:100DC0005B08031DEC2E5A08031DEC2E013059025E
:100DD000031CEB2EEC2EFB2E22000E12EF2E230016
:100DE0005A082100A100230059082100A0009B31CE
:100DF00075238031142F22000E16FE2E2300590970
:100E00002200B50023005A092200B600B50A0319D2
:100E1000B60A35082100A000220036082100A100F2
:100E20009B3175238031142F2300E01B252F600890
:100E3000031D262F5F08031D262F5E08031D262F86
:100E400001305D02031C252F262F352F22000E13A3
:100E5000292F23005E082100A10023005D08210046
:100E6000A0009B318E2380314E2F22000E17382F89
:100E700023005D092200B50023005E092200B600B0
:100E8000B50A0319B60A35082100A0002200360869
:100E90002100A1009B318E2380314E2F2300D41BD3
:100EA000602F5408031D5F2F5308031D5F2F520846
:100EB000031D5F2F1430510203185F2F602F672F1F
:100EC00003302200B50035082300E600672FD81B49
:100ED000782F5808031D772F5708031D772F5608C2
:100EE000031D772F143055020318772F782FBB2F4F
:100EF00003302200B50035082300E500BB2FBB2FCF
:100F0000BB2FBB2F2300690803392200B500B601AF
:100F10003608003A03198D2FBB2F3508013A031903
:100F2000322E033A0319862E013A0319DA2EBB2F0B
:100F3000BB2FBB2F00302300BB000030BA000030B5
:100F4000B9000030B8000030BF000030BE000030F3
:100F5000BD000030BC000030CC000030CB000030C1
:100F6000CA000030C9000030D0000030CF0000308F
:100F7000CE000030CD000A3023004002031CC12FF8
:100F8000C22FD32FC32F031022008E1F0314031868
:100F9000CA2FCD2F22008E17CF2F22008E13D02FD5
:100FA0002300C001D32F34302200B500F130890B6B
:100FB000D72FB50BD72F003201302200B5003508EE
:100FC0002300C007AA28AA288031462820008D1EA9
:100FD000EA2FEB2FF52F01302200CB070030CC3D5C
:100FE0000030CD3D0030CE3DFF2FFF302200CB073B
:100FF000FF30CC3DFF30CD3DFF30CE3DFF2F080010
:10100000163021009700080022008C018D0140302D
:101010008E003B3021008C00F0308D008E018F302F
:1010200023008E008D0107308C0024008D018C017F
:101030002100951722009D0127001312931212120E
:1010400092121116911696129613951295139416E4
:101050009417C0302100A0001B30A1009A315B2200
:101060008831DA302100A0001B30A1009A316422BF
:101070008831F4302100A0001B30A1009A316D228C
:101080008831E6302100A0000730A1009A31762295
:1010900088318B15080020003D088039C2004208C5
:1010A000C7003D35C2004208CD00BC1F5828592852
:1010B0005B284D145B284D0803195F2860287028B1
:1010C0004D0A031D642865286E280030BD000030DD
:1010D000BC000030BB000030BA006E28BC17792875
:1010E0000030BD000030BC000030BB000030BA0052
:1010F000792841088039C2004208C7064135C2003C
:101100004208CC00C01F8528862888284C148828CF
:101110004C0803198C288D289D284C0A031D912802
:1011200092289B280030C1000030C0000030BF0072
:101130000030BE009B28C017A6280030C100003038
:10114000C0000030BF000030BE00A6284C080319C4
:10115000AA28AB28B1284D08031DAF28B028BB280A
:10116000B1280030BD000030BC000030BB000030B2
:10117000BA00B52AB52A3A08C2004208F000400871
:101180009C318824883171082000D3007008D20077
:101190005208C200C301C401C5014508CB00440880
:1011A000CA004308C9004208C8005308C200C3016E
:1011B000C401C5014508D1004408D0004308CF0050
:1011C0004208CE003B08C2004208F0003F089C31B4
:1011D0008824883171082000D3007008D20052089A
:1011E000C200C301C401C5014208C8074308C93D84
:1011F0004408CA3D4508CB3D5308C200C301C401A1
:10120000C5014208CE074308CF3D4408D03D4508FC
:10121000D13D3C08C2004208F0003E089C318824C1
:10122000883171082000D3007008D2005208C20033
:10123000C301C401C5014208C8074308C93D4408A9
:10124000CA3D4508CB3D5308C200C301C401C501D6
:101250004208CE074308CF3D4408D03D4508D13D64
:101260000830C835C90DCA0DCB0D890B31293B0893
:10127000C2004208F0003E089C3188248831710881
:101280002000D3007008D2005208C8075308C93D97
:101290000030CA3DCB3D3A08C2004208F0003F088A
:1012A0009C318824883171082000D3007008D20056
:1012B0005208C8075308C93D0030CA3DCB3D08302D
:1012C000C835C90DCA0DCB0D890B60293A08C2007B
:1012D0004208F0003E089C318824883171082000C3
:1012E000D3007008D2005208C8075308C93D003027
:1012F000CA3DCB3D3B08C2004208F00040089C318B
:101300008824883171082000D3007008D200520868
:10131000CE075308CF3D0030D03DD13D3C08C20040
:101320004208F0003F089C31882488317108200071
:10133000D3007008D2005208CE075308CF3D0030CA
:10134000D03DD13D3C08C2004208F00040089C312D
:101350008824883171082000D3007008D200520818
:10136000C2005308C300C401C5010830C235C30D13
:10137000C40DC50D890BB6294208CE074308CF3DE1
:101380004408D03D4508D13D4808C2004908C30083
:101390004A08C4004B08C5001830C536C40CC30C3D
:1013A000C20C890BCD294208CE074308CF3D440823
:1013B000D03D4508D13D0830C835C90DCA0DCB0D0B
:1013C000890BDC294D084C07C200C301C30D42083C
:1013D000823ED200FF30433DD300072A0130CE3594
:1013E000CF0DD00DD10D890BEF29CB1FF829F9298D
:1013F000FB294E14FB290130C835C90DCA0DCB0D90
:10140000890BFC29FF30D207FF30D33D072AD01FBC
:101410000A2A0B2AEE290C2ACC01CB1F102A112AEA
:10142000312AFF304805C200FF304905C300FF30B4
:101430004A05C4007F304B05C500450844044304F9
:1014400042040319242A252A282ACC01CC0A312A4D
:101450004E1C2B2A2C2A312ACC01CC0A312A312AC3
:10146000312A4C080319352A362A602A0130CE0762
:101470000030CF3D0030D03D0030D13D511C412ADD
:10148000422A602A4E08C2004F08C3005008C40018
:101490005108C5000130C600C537C40CC30CC20CCE
:1014A000C60B4C2A4508D1004408D0004308CF00A1
:1014B0004208CE000130D2070030D33D602A602AB6
:1014C0005308803AC20080304202031D692AFF306F
:1014D0005202031C6C2A6D2A772A7F302000D1002B
:1014E0008030D0000030CF000030CE00A82A20008D
:1014F0005308803AC20080304202031D812A013025
:1015000052020318842A852A902A00302000D10034
:101510000030D0000030CF000030CE00C701A82A34
:1015200020005208C2004208CD00FF30CE05FF3037
:10153000CF057F30D0050030D1054D1CA02AA12A4F
:10154000A32AD017A32A4D36C2004208D100A82AE8
:101550004708C2004208D1045108BD005008BC0031
:101560004F08BB004E08BA00B52A080021004B08FE
:101570008039D0005008D5004B35D0005008DB0032
:10158000CA1FC32AC42AC62A5B14C62A5B080319C9
:10159000CA2ACB2ADB2A5B0A031DCF2AD02AD92AE2
:1015A0000030CB000030CA000030C9000030C80055
:1015B000D92ACA17E42A0030CB000030CA00003014
:1015C000C9000030C800E42A4F088039D000500814
:1015D000D5064F35D0005008DA00CE1FF02AF12A88
:1015E000F32A5A14F32A5A080319F72AF82A082B5F
:1015F0005A0A031DFC2AFD2A062B0030CF000030BA
:10160000CE000030CD000030CC00062BCE17112BC1
:101610000030CF000030CE000030CD000030CC00D4
:10162000112B5A080319152B162B1C2B5B08031DB5
:101630001A2B1B2B262B1C2B0030CB000030CA0092
:101640000030C9000030C800202D202D4808D000EF
:101650005008A0004E089C31AE248A312100210898
:10166000E1002008E0006008D000D101D201D301E0
:101670005308D9005208D8005108D7005008D600A6
:101680006108D000D101D201D3015308DF00520814
:10169000DE005108DD005008DC004908D000500889
:1016A000A0004D089C31AE248A3121002108E100C0
:1016B0002008E0006008D000D101D201D301500819
:1016C000D6075108D73D5208D83D5308D93D610887
:1016D000D000D101D201D3015008DC075108DD3D13
:1016E0005208DE3D5308DF3D4A08D0005008A000F4
:1016F0004C089C31AE248A3121002108E1002008E9
:10170000E0006008D000D101D201D3015008D60713
:101710005108D73D5208D83D5308D93D6108D00043
:10172000D101D201D3015008DC075108DD3D520838
:10173000DE3D5308DF3D0830D635D70DD80DD90D25
:10174000890B9C2B4908D0005008A0004C089C3104
:10175000AE248A3121002108E1002008E000600861
:10176000D6076108D73D0030D83DD93D4808D000A4
:101770005008A0004D089C31AE248A312100210878
:10178000E1002008E0006008D6076108D73D00307E
:10179000D83DD93D0830D635D70DD80DD90D890B98
:1017A000CB2B4808D0005008A0004C089C31AE2438
:1017B0008A3121002108E1002008E0006008D607F6
:1017C0006108D73D0030D83DD93D4908D0005008C8
:1017D000A0004E089C31AE248A3121002108E1008E
:1017E0002008E0006008DC076108DD3D0030DE3DD8
:1017F000DF3D4A08D0005008A0004D089C31AE24BF
:101800008A3121002108E1002008E0006008DC079F
:101810006108DD3D0030DE3DDF3D4A08D000500864
:10182000A0004E089C31AE248A3121002108E1003D
:101830002008E0006008D0006108D100D201D30187
:101840000830D035D10DD20DD30D890B212C500885
:10185000DC075108DD3D5208DE3D5308DF3D5608E8
:10186000D0005708D1005808D2005908D3001830CA
:10187000D336D20CD10CD00C890B382C5008DC0795
:101880005108DD3D5208DE3D5308DF3D0830D635B6
:10189000D70DD80DD90D890B472C5B085A07D000FE
:1018A000D101D10D5008823EE000FF30513DE100F2
:1018B000722C0130DC35DD0DDE0DDF0D890B5A2C6D
:1018C000D91F632C642C662C5C14662C0130D63531
:1018D000D70DD80DD90D890B672CFF30E007FF30ED
:1018E000E13D722CDE1F752C762C592C772CDA01F9
:1018F000D91F7B2C7C2C9C2CFF305605D000FF3050
:101900005705D100FF305805D2007F305905D3006C
:10191000530852045104500403198F2C902C932C1B
:10192000DA01DA0A9C2C5C1C962C972C9C2CDA0190
:10193000DA0A9C2C9C2C9C2C5A080319A02CA12C54
:10194000CB2C0130DC070030DD3D0030DE3D0030C7
:10195000DF3D5F1CAC2CAD2CCB2C5C08D0005D08AF
:10196000D1005E08D2005F08D3000130D400D33725
:10197000D20CD10CD00CD40BB72C5308DF0052087A
:10198000DE005108DD005008DC000130E0070030C7
:10199000E13DCB2CCB2C6108803AD0008030500246
:1019A000031DD42CFF306002031CD72CD82CE22C52
:1019B0007F302100DF008030DE000030DD000030AD
:1019C000DC00132D21006108803AD00080305002E5
:1019D000031DEC2C013060020318EF2CF02CFB2CC3
:1019E00000302100DF000030DE000030DD0000307C
:1019F000DC00D501132D21006008D0005008DB0069
:101A0000FF30DC05FF30DD057F30DE050030DF050F
:101A10005B1C0B2D0C2D0E2DDE170E2D5B36D00012
:101A20005008DF00132D5508D0005008DF045F0870
:101A3000CB005E08CA005D08C9005C08C800202D04
:101A400008002100650880392200A000200821003C
:101A5000EA0065352200A00020082100EC00E41F08
:101A6000322D332D352D6C14352D6C080319392D7D
:101A70003A2D4B2D6C0A031D3E2D3F2D482D003075
:101A8000E5000030E4000030E3000030E200482DC3
:101A9000E417E501542D0030E5000030E40000308B
:101AA000E3000030E200542D690880392200A000D4
:101AB00020082100EB006B086A060319602D612DD8
:101AC000632D6A17632D69352200A00020082100CC
:101AD000EB00E81F6C2D6D2D6F2D6B146F2D6B08B7
:101AE0000319732D742D852D6B0A031D782D792D07
:101AF000822D0030E9000030E8000030E7000030BF
:101B0000E600822DE817E9018D2D0030E900003054
:101B1000E8000030E7000030E6006C086B020318B4
:101B2000922D932DF92D6A1F962D972D9E2D803085
:101B30002200A00020082100EA069E2D6C08220049
:101B4000A00020082100ED006B082200A000200862
:101B50002100EC006D082200A00020082100EB000D
:101B600062082200A00020082100ED006608220083
:101B7000A00020082100E2006D082200A00020083B
:101B80002100E60063082200A00020082100ED00EB
:101B900067082200A00020082100E3006D08220051
:101BA000A00020082100E70064082200A00020080F
:101BB0002100ED0068082200A00020082100E400B8
:101BC0006D082200A00020082100E800650822001E
:101BD000A00020082100ED0069082200A0002008D4
:101BE0002100E5006D082200A00020082100E90086
:101BF000F92DED016C082200A000A101A009A109A6
:101C0000A00A0319A10A21006B0822002007A200E4
:101C100021080318210AA3002308803AA400803079
:101C20002402031D152E1A302202031C182E192E11
:101C30005F2E21006508640463046204031D212EE5
:101C4000232E0130242E00302200A0002008210085
:101C5000ED000030E5000030E4000030E30000302B
:101C6000E2006B082200A00020082100EC00672E93
:101C70005F2E6D1C3C2E3D2E452E6D360138220008
:101C8000A00020082100ED00482E0310ED0C482E86
:101C9000621C4B2E4C2E4E2EED174E2E0130220084
:101CA000A0002100E537E40CE30CE20C2200A00BBD
:101CB000512E0130A00020082100EC075F2E2100EA
:101CC0006B086C02031C652E662E392E672E6A1B6C
:101CD0006A2E6B2EAD2E6C08031D6F2E702E7A2E81
:101CE0000030E5000030E4000030E3000030E200A6
:101CF000FF2FFF2F6608E2076708E33D6808E43D11
:101D00006908E53D651C852E862E722F6D1C892E77
:101D10008A2E922E6D3601382200A0002008210064
:101D2000ED00952E0310ED0C952E621C982E992E29
:101D30009B2EED179B2E01302200A0002100E537DD
:101D4000E40CE30CE20C2200A00B9E2E0130A0005C
:101D500020082100EC07722F722F6508803A2200BC
:101D6000A00021006908803A220020022100031D02
:101D7000C32E68086402031DC32E67086302031D97
:101D8000C32E660862020318C62EC72E2D2FFF3001
:101D90002200A000FF30A100FF30A200FF30A3000E
:101DA000210066082200A400210067082200A50087
:101DB000210068082200A600210069082200A7006F
:101DC000210062092200A800210063092200A90065
:101DD000210064092200AA00210065092200AB004D
:101DE000A80A0319A90A0319AA0A0319AB0A2808A1
:101DF000A4072908A53D2A08A63D2B08A73D2408CD
:101E0000A0072508A13D2608A23D2708A33D2308D9
:101E10002100E500220022082100E4002200210820
:101E20002100E300220020082100E200803022008F
:101E3000A00020082100EA06ED09ED0A6D08031D47
:101E4000222F232F352F0130E2070030E33D0030F1
:101E5000E43D0030E53D352F352F6608E202670886
:101E6000E33B6808E43B6908E53B650864046304F8
:101E70006204031D3C2F3D2F6C2F6D08031D412F65
:101E8000422F6C2F0030E5000030E4000030E3000A
:101E90000030E200FF2FFF2F6C2F0130E235E30D01
:101EA000E40DE50D890B4E2FED1F572F582F592F9D
:101EB00062146D1C5C2F5D2F602F0314ED0D632FDA
:101EC0000310ED0D632F6C080319672F682F6C2F1B
:101ED0000130EC026C2F6C2FE41F6F2F702F4D2FF1
:101EE000722F722FEB01ED1F762F772F892F6D0840
:101EF0007F3903197C2F7D2F802FEB01EB0A892F6F
:101F0000621C832F842F892FEB01EB0A892F892FE5
:101F1000892F6B0803198D2F8E2FCD2F0130E207EB
:101F20000030E33D0030E43D0030E53D651C992F75
:101F30009A2FCD2F62082200A00021006308220002
:101F4000A100210064082200A200210065082200EF
:101F5000A3000130A400A337A20CA10CA00CA40B79
:101F6000AB2F23082100E500220022082100E40015
:101F7000220021082100E300220020082100E200C5
:101F80006C0A0319C42FC52FCD2F01302200A000E9
:101F900020082100EC07CD2FCD2F6C0A0319D12F7B
:101FA000D22FD82F6C08031DD62FD72FE82FD82F6C
:101FB0000030E5000030E4000030E3000030E200D3
:101FC0006C08031DE42FE52FE82FEA01E82FE82F26
:101FD0006C1CEB2FEC2FEE2FE417F42F7F30220038
:101FE000A00020082100E4056C362200A000200893
:101FF0002100E500EA1FFD2FFE2FFF2FE517080047
:102000005534283428346434F80078080319092832
:102010000A281E28F31F0D280E281E287009FA0012
:102020007109FB007209FC007309FD00FA0A03192B
:10203000FB0A0319FC0A0319FD0A26287308FD0090
:102040007208FC007108FB007008FA007308720443
:1020500071047004031D2D282E2838280030F30049
:102060000030F2000030F1000030F000B728B7284F
:102070009630F4007408F90049280130F40074081F
:10208000F9070130FD36FC0CFB0CFA0C890B4228D9
:102090004928FE307D05031D4E284F283D28642821
:1020A00064280130F4007408F9070130FA070030A1
:1020B000FB3D0030FC3D0030FD3D0130FD36FC0CA9
:1020C000FB0CFA0C890B5E28FF307D05031D692887
:1020D0006A285128762876280130F9020130FA352D
:1020E000FB0DFC0DFD0D890B6F287628FC1B792854
:1020F0007A2881280230790203187F2880286C28EA
:1021000081287918842885288D28FF30FA05FF302A
:10211000FB057F30FC05FF30FD050310F90C790845
:10212000F400F501F601F7011830F435F50DF60D60
:10213000F70D890B95287408FA047508FB047608D6
:10214000FC047708FD0478080319A728A828AE28FE
:10215000F31FAB28AC28AE28FD17AE287D08F3008E
:102160007C08F2007B08F1007A08F000B72808002C
:102170002100A80028080319BE28BF28D328A31FC0
:10218000C228C328D3282009AA002109AB002209AC
:10219000AC002309AD00AA0A0319AB0A0319AC0A63
:1021A0000319AD0ADB282308AD002208AC00210882
:1021B000AB002008AA002308220421042004031DE8
:1021C000E228E328ED280030A3000030A200003010
:1021D000A1000030A0006C296C299630A4002408CE
:1021E000A900FE280130A4002408A9070130AD365B
:1021F000AC0CAB0CAA0C890BF728FE28FE302D0581
:10220000031D03290429F228192919290130A400E2
:102210002408A9070130AA070030AB3D0030AC3DCF
:102220000030AD3D0130AD36AC0CAB0CAA0C890BC7
:102230001329FF302D05031D1E291F2906292B29CF
:102240002B290130A9020130AA35AB0DAC0DAD0D23
:10225000890B24292B29AC1B2E292F293629023042
:102260002902031834293529212936292918392921
:102270003A294229FF30AA05FF30AB057F30AC0573
:10228000FF30AD050310A90C2908A400A501A60183
:10229000A7011830A435A50DA60DA70D890B4A2955
:1022A0002408AA042508AB042608AC042708AD04BA
:1022B000280803195C295D296329A31F6029612966
:1022C0006329AD1763292D08A3002C08A2002B0851
:1022D000A1002A08A0006C2908003D2AF530F4006E
:1022E00074082300E90520006A0803197829792970
:1022F0008E296C08F400F501F435F50DF435F50D73
:102300007408F0007508F1009B31332391312300EC
:10231000E601E60A9A31402291318E2920006B367F
:10232000031993299429A22995296B080139F400EE
:10233000F40E22000E087406EF3974068E00A229EE
:10234000A229A22922000E10542A542AFA30F4009D
:1023500074082300E90520006A080319B029B1298F
:10236000C6296C08F400F501F435F50DF435F50DCA
:102370007408F0007508F1009B3149239131230066
:10238000E501E50A9A3191229131C62920006B3688
:102390000319CB29CC29DC29CD296B080139F4009C
:1023A000F40EF40DF40D22000E087406BF39740605
:1023B0008E00DC29DC29DC2922008E10542A542AC4
:1023C000542AE2292300E90120006A080319E929B7
:1023D000EA29132A6C08F400F501F435F50DF435FB
:1023E000F50D7408F0007508F1009B31332391312D
:1023F00020006C08F400F501F435F50DF435F50D09
:102400007408F0007508F1009B31492391312300D5
:10241000E601E60AE501E50A9A31402291319A3156
:1024200091229131132A20006B360319182A192A98
:10243000352A1A2A6B080139F400F40E22000E081E
:102440007406EF3974068E00252A20006B080139C6
:10245000F400F40EF40DF40D22000E087406BF39DA
:1024600074068E00352A352A352A22000E10392AA4
:10247000392A8E10542A542A542A20006D08F40058
:10248000F5017508003A0319462AE2297408003A52
:102490000319542A013A03196E29033A0319A6298C
:1024A000013A0319E229E2292000EA01080020008C
:1024B00027088039A8002808B1002735A800280877
:1024C000B800A61F642A652A672A3814672A3808C4
:1024D00003196B2A6C2A7D2A380A031D702A712A77
:1024E0007A2A0030A7000030A6000030A500003096
:1024F000A4007A2AA617A701862A0030A700003078
:10250000A6000030A5000030A400862A23088039E8
:10251000A8002808B1062335A8002808B900A21F82
:10252000922A932A952A3914952A39080319992A47
:102530009A2AAB2A390A031D9E2A9F2AA82A00300C
:10254000A3000030A2000030A1000030A000A82AA3
:10255000A217A301B32A0030A3000030A20000306C
:10256000A1000030A0002308220421042004031D40
:10257000BA2ABB2AD52A0030A7000030A6000030B6
:10258000A5000030A4008030A6047F30A7043108E5
:10259000A8002808A7042708A3002608A2002508E9
:1025A000A1002408A000352C352C3808031DD92A99
:1025B000DA2AEC2A0030A7000030A6000030A5007F
:1025C0000030A4002708A3002608A2002508A100C7
:1025D0002408A000352C352C3908A800A901A80929
:1025E000A909A80A0319A90A38082807AA0029086E
:1025F0000318290AAB002A087F3EB20000302B3DA9
:10260000B3002708B0002608AF002508AE00240854
:10261000AD000030A7000030A6000030A50000305B
:10262000A4000030B7000030B6000030B500003024
:10263000B400B9015D2B390803191F2B202B3C2B4B
:102640000130AD35AE0DAF0DB00D890B212B013032
:10265000A435A50DA60DA70D890B282BB71F312B6F
:10266000322B342B2414342B0130B435B50DB60D78
:10267000B70D890B352B3C2B23083002031D4A2B49
:1026800022082F02031D4A2B21082E02031D4A2B6C
:1026900020082D02031C4D2B4E2B582B37172008DA
:1026A000AD022108AE3B2208AF3B2308B03B582BBC
:1026B0000130A8002808B9075D2B1A303902031C25
:1026C000622B632B1B2B642B30082F042E042D044C
:1026D00003196B2B6C2B882B3414882B882B01301F
:1026E000A435A50DA60DA70D890B702BB71F792B4F
:1026F0007A2B7C2B24147C2B0130B435B50DB60D10
:10270000B70D890B7D2BFF30B207FF30B33D882B0F
:10271000A61F8B2B8C2B6F2B8D2BB901B71F912BE9
:10272000922BB22BFF303405A800FF303505A900ED
:10273000FF303605AA007F303705AB002B082A048E
:10274000290428040319A52BA62BA92BB901B90A22
:10275000B22B241CAC2BAD2BB22BB901B90AB22B76
:10276000B22BB22B39080319B62BB72BE12B013052
:10277000A4070030A53D0030A63D0030A73D271C32
:10278000C22BC32BE12B2408A8002508A90026088A
:10279000AA002708AB000130AC00AB37AA0CA90C8B
:1027A000A80CAC0BCD2B2B08A7002A08A6002908E3
:1027B000A5002808A4000130B2070030B33DE12B8A
:1027C000E12B3308803AA80080302802031DEA2B51
:1027D000FF303202031CED2BEE2BFB2BFF302000D1
:1027E000B2000030B3000030A7000030A600003077
:1027F000A5000030A40020003308803AA8008030F3
:102800002802031D052C013032020318082C092C64
:10281000152C2000B201B3010030A7000030A60043
:102820000030A5000030A400B10120003208A8004B
:102830002808B800381C1D2C1E2C202CA617242C70
:102840007F30A8002808A6053836A8002808A70069
:102850003108A8002808A7042708A3002608A2001A
:102860002508A1002408A000352C08002100350807
:102870008039B6003608BF003535B6003608C600C8
:10288000B41F432C442C462C4614462C46080319EE
:102890004A2C4B2C5C2C460A031D4F2C502C592CD7
:1028A0000030B5000030B4000030B3000030B2009A
:1028B000592CB417B501652C0030B5000030B400B8
:1028C0000030B3000030B200652C31088039B6000A
:1028D0003608BF063135B6003608C700B01F712C68
:1028E000722C742C4714742C47080319782C792CFB
:1028F0008A2C470A031D7D2C7E2C872C0030B100CA
:102900000030B0000030AF000030AE00872CB017B0
:10291000B101922C0030B1000030B0000030AF00A7
:102920000030AE00310830042F042E04031D992C12
:102930009A2CB42C0030B5000030B4000030B30045
:102940000030B2008030B4047F30B5043F08B600D8
:102950003608B5043508B1003408B0003308AF00BC
:102960003208AE00142E142E4608031DB82CB92CC4
:10297000CB2C0030B5000030B4000030B300003084
:10298000B2003508B1003408B0003308AF00320897
:10299000AE00142E142E4708B600B701B609B709C9
:1029A000B60A0319B70A46083607B80037080318ED
:1029B000370AB90038087F3EC0000030393DC100F9
:1029C0003508BE003408BD003308BC003208BB0027
:1029D0000030B5000030B4000030B3000030B20069
:1029E0000030C5000030C4000030C3000030C20019
:1029F000C7013C2D47080319FE2CFF2C1B2D01306D
:102A0000BB35BC0DBD0DBE0D890B002D0130B2359F
:102A1000B30DB40DB50D890B072DC51F102D112D4C
:102A2000132D3214132D0130C235C30DC40DC50D45
:102A3000890B142D1B2D31083E02031D292D300852
:102A40003D02031D292D2F083C02031D292D2E08B0
:102A50003B02031C2C2D2D2D372D45172E08BB02B4
:102A60002F08BC3B3008BD3B3108BE3B372D013041
:102A7000B6003608C7073C2D1A304702031C412D0B
:102A8000422DFA2C432D3E083D043C043B0403191F
:102A90004A2D4B2D672D4214672D672D0130B2351D
:102AA000B30DB40DB50D890B4F2DC51F582D592DE4
:102AB0005B2D32145B2D0130C235C30DC40DC50D25
:102AC000890B5C2DFF30C007FF30C13D672DB41F5F
:102AD0006A2D6B2D4E2D6C2DC701C51F702D712DCC
:102AE000912DFF304205B600FF304305B700FF309F
:102AF0004405B8007F304505B9003908380437046B
:102B000036040319842D852D882DC701C70A912D00
:102B1000321C8B2D8C2D912DC701C70A912D912D23
:102B2000912D47080319952D962DC02D0130B20720
:102B30000030B33D0030B43D0030B53D351CA12D13
:102B4000A22DC02D3208B6003308B7003408B800F3
:102B50003508B9000130BA00B937B80CB70CB60C5B
:102B6000BA0BAC2D3908B5003808B4003708B300EB
:102B70003608B2000130C0070030C13DC02DC02D65
:102B80004108803AB60080303602031DC92DFF305F
:102B90004002031CCC2DCD2DDA2DFF302100C000CA
:102BA0000030C1000030B5000030B4000030B30088
:102BB0000030B20021004108803AB6008030360271
:102BC000031DE42D013040020318E72DE82DF42DFC
:102BD0002100C001C1010030B5000030B400003058
:102BE000B3000030B200BF0121004008B600360833
:102BF000C600461CFC2DFD2DFF2DB417032E7F3083
:102C0000B6003608B4054636B6003608B5003F08AB
:102C1000B6003608B5043508B1003408B0003308F2
:102C2000AF003208AE00142E0800F600F901F801DA
:102C3000F701E82F2200D301D30AFF2FDF2E200057
:102C40006F08A0002008E800F12E262E6F08A000D3
:102C50002008F90068080339A0002008ED00680882
:102C6000A0000230A036890B322E20080339A100C3
:102C70002108EB00B92E522E79089A31492296315B
:102C8000F12E79089A3152229631F12EF12E482EEA
:102C900079089A314922963179089A31522296312F
:102CA000F12EF12E20006D08A000A1012108003AAC
:102CB00003195B2E482E2008003A0319F12E013A21
:102CC00003193C2E033A0319412E013A0319482EE9
:102CD000482EF12EEE017908A0002008E900F12E1F
:102CE0007908A0002008EC00EA01EA0A91316D2180
:102CF0009631F12EF3302000A00020082300E905D2
:102D000091316D21963179082000A0002008F20051
:102D10006D089D31BC25963120006D08A00020086B
:102D20002300E904F12EFC302000A000200823003D
:102D3000E90591316D21963179082000A000200825
:102D4000F2006D089D31BC25963120006D08A00071
:102D50000130A035FF3E031DA92E2035A10021081A
:102D60002300E904F12EF12E91316D219631F12EDF
:102D7000F12E20006808A0000430A036890BBD2E7B
:102D800020080F39A100A2012208003A0319C92E18
:102D9000B42E2108013A0319522E033A0319702E5A
:102DA000013A03196A2E073A03197A2E013A0319D8
:102DB000932E033A0319F12EB42EF12EF12E220098
:102DC00053082000A000A1012108003A0319E92EB0
:102DD000262E2008003A0319262E013A03191F2E29
:102DE000262E2200D301FF2F20006908A000063004
:102DF000A036890BF82E20080339A1002108F7001E
:102E0000D52F9A2F032F230061082000A000230054
:102E100062082000A100230063082000A200230014
:102E200064082000A300FF30A4000030A5006E0855
:102E3000A6000230A635FF3E031D1A2F2635890A4B
:102E4000232FA435A50D890B212F2408A7002508C1
:102E5000A8000030A81BFF30A900AA002708A00581
:102E60002808A1052908A2052A08A3056E08AB00B9
:102E70000230AB35FF3E031D392F2B35890A442F15
:102E8000A337A20CA10CA00C890B402F2008AC008A
:102E90002C08F800780824009100AB2F22004B0882
:102EA0002000A00022004C082000A10022004D08B4
:102EB0002000A20022004E082000A300FF30A40042
:102EC0000030A5006E08A6000230A635FF3E031DA7
:102ED000652F2635890A6E2FA435A50D890B6C2F19
:102EE0002408A7002508A8000030A81BFF30A9006F
:102EF000AA002708A0052808A1052908A2052A0874
:102F0000A3056E08AB000230AB35FF3E031D842FD6
:102F10002B35890A8F2FA337A20CA10CA00C890B8B
:102F20008B2F2008AC002C08F800780824009100B2
:102F3000AB2FAB2F20006D08A000A1012108003AA3
:102F40000319A32F032F2008013A0319032F033A73
:102F500003194E2F032F01302000A0002008EE0798
:102F60000330A0002008EE05FF2FC22FB72F23004B
:102F7000660824009100FF2F2300650824009100BB
:102F8000FF2FFF2F20006D08A000A1012108003AAB
:102F90000319CB2FB72F2008013A0319B72F033A93
:102FA0000319BC2FB72FFF2FFF2F7708A000A10117
:102FB0002108003A0319DD2FFF2F2008003A0319DA
:102FC0009A2F013A0319C22FFF2FFF2FFF2FFF2F38
:102FD00076082000A000A1012108003A0319F12F72
:102FE000FF2F2008003A03191A2E013A0319F42E74
:102FF000033A0319DF2E013A0319FF2FFF2F0800B0
:10343C00783021009900220096010800C0302C0041
:10344C009300920191010800640080010131890B05
:10345C002B2A0034C0302C009600C7309500C030A9
:10346C0094000800C73020009B009A019110043092
:10347C009C00080022006208200095002200CF0169
:10348C00D0018B160800F1007108F00070082200C2
:10349C00E300CF01D0010800F1007108F0007008C2
:1034AC002200E400D101D2010800210021082200F1
:1034BC00E100210020082200E00008002100210882
:1034CC002200DF00210020082200DE00080021007D
:1034DC0021082200DD00210020082200DC00080069
:1034EC00210021082200DB00210020082200DA0044
:1034FC000800210021082200D5002100200822000C
:10350C00D4000800210021082200D7002100200847
:10351C002200D600080022005908F1005808F000DB
:10352C009B310C239A312200D101D20121001114BC
:10353C0008002200540855040319A52AA62AAC2A0F
:10354C0055088A0054080A009A31AC2A0800220057
:10355C00560857040319B32AB42ABA2A57088A0002
:10356C0056080A009A31BA2A080022006008610441
:10357C000319C12AC22AC82A61088A0060080A00F5
:10358C009A31C82A27001312080022005E085F0433
:10359C000319D12AD22AD82A5F088A005E080A00A9
:1035AC009A31D82A27009312080022005C085D0487
:1035BC000319E12AE22AE82A5D088A005C080A005D
:1035CC009A31E82A27009612080022005A085B0458
:1035DC000319F12AF22AF82A5B088A005A080A0011
:1035EC009A31F82A270096130800803024009400A2
:1035FC00263095000130960097017F3093000830FB
:10360C009200200091112100911508002000181D36
:10361C00102B112B182B181071089700700896009E
:10362C0018141D2B71089700700896001D2B0800AC
:10363C000030F000F1009B3133239B31252B22000D
:10364C000E14282BFA30F40074082300E90502301C
:10365C00F4007408E6008B1208007108F30070087F
:10366C00F200F336F20CF336F20C72082C009200D6
:10367C0070080339F2000530F235FF3E031D422B72
:10368C007235910008007108F3007008F200F336EF
:10369C00F20CF336F20C72082C009500700803390A
:1036AC00F2000530F235FF3E031D582B72359400A5
:1036BC0008000030F000F1009B3149239B31662B50
:1036CC0022008E14692BF530F40074082300E905F0
:1036DC000230F4007408E5002100111008002100EC
:1036EC002108A3002008A200A336A20CA336A20C2A
:1036FC0022082C009200210020080339A20005307A
:10370C00A235FF3E031D862B22352C0091000800AC
:10371C0021002108A3002008A200A336A20CA33686
:10372C00A20C22082C009500210020080339A200CD
:10373C000530A235FF3E031D9F2B22352C00940033
:10374C00080021001508C0391538950006302000F6
:10375C00950006302100A20022082200E2000B1185
:10376C008B161E302100A0001B30A1009A317F2245
:10377C009B31080020008C1EC42BC52BCF2BFF3097
:10378C002300E107FF30E23DFF30E33DFF30E43D35
:10379C00D92B01302300E1070030E23D0030E33D3E
:1037AC000030E43DD92B080020000C1EDE2BDF2B53
:1037BC00E92B01302300E1070030E23D0030E33D0E
:1037CC000030E43DF32BFF302300E107FF30E23DF6
:1037DC00FF30E33DFF30E43DF32B080020008D1F4C
:1037EC00F82BF92B032CFF302200CB07FF30CC3DFC
:1037FC00FF30CD3DFF30CE3D0D2C01302200CB07EC
:10380C000030CC3D0030CD3D0030CE3D0D2C0800BD
:10381C00200099013C309700B03096001708220028
:10382C00D900200016082200D80020001110210019
:10383C0011145F30A0001B30A1009A3188229C31FA
:10384C003130200098000800883104209C319A31D6
:10385C001E229C31883100209C319A31FB229C31F4
:10386C009A3124229C319A3130229C319A3138225F
:10387C009C319C310E249C319B31A7239C31080038
:10388C0021002108803AA20080302202031D502C16
:10389C00013020020318532C542C612C21002009D8
:1038AC00A2002109A300A20A0319A30A2208A0005E
:1038BC002308A100622C622C08002700131E672C21
:1038CC00682C6C2C9A31BB229C316C2C2700931EDB
:1038DC00702C712C752C9A31CB229C31752C2700B5
:1038EC00961E792C7A2C7E2C9A31DB229C317E2CE4
:1038FC002700961F822C832C872C9A31EB229C312B
:10390C00872C0800F800F401F5017008F200F301AF
:10391C007208F6007308F700932C781C962C972CE1
:10392C009B2C7608F4077708F53D0130F635F70D3A
:10393C00890B9C2C0310F80C7808031DA62CA72CC3
:10394C00932CA82C7508F1007408F000AD2C08001D
:10395C002100A800A401A5012008A200A3012208AF
:10396C00A6002308A700BA2C281CBD2CBE2CC22CE8
:10397C002608A4072708A53D0130A635A70D890BFD
:10398C00C32C0310A80C2808031DCD2CCE2CBA2C4C
:10399C00CF2C2508A1002408A000D42C080000304E
:1039AC002100AB000030AA000030A9000030A800B4
:1039BC00DF2C201CE22CE32CEC2C2408A807250877
:1039CC00A93D2608AA3D2708AB3DEC2C0130A435B7
:1039DC00A50DA60DA70D890BED2C0130A336A20C5D
:1039EC00A10CA00C890BF42C230822042104200424
:1039FC00031D012D022DDF2C032D2B08A3002A08FB
:103A0C00A2002908A1002808A0000C2D08005530A0
:103A1C00FA007A08FB002000911124001108FA002A
:103A2C007A08FB00141D1B2D1C2D2F2D941E1F2DF1
:103A3C00202D292D161F232D242D292D03309631B1
:103A4C0015269D31432D0130963115269D31432D80
:103A5C00432D941A322D332D382D003096311526E6
:103A6C009D31432D7B08FA007A082000EF000230CC
:103A7C00963115269D31432D432D24001516080033
:103A8C000B11220062082000950001302200CF07A4
:103A9C000030D03D4F08F0005008F100F201F30166
:103AAC000030903104209D3173082000D70072083B
:103ABC00D6007108D5007008D400220063082000DD
:103ACC00E400E501E601E7016708F3006608F2008F
:103ADC006508F1006408F0000130903104209D313C
:103AEC0073082000A7007208A6007108A5007008D2
:103AFC00A4004130A3002030A2000030A10000300F
:103B0C00A000923157229D3120002308C1002208C9
:103B1C00C0002108BF002008BE004330BD007A3031
:103B2C00BC000030BB000030BA0088314B209D3106
:103B3C0020003D08DB003C08DA003B08D9003A08BD
:103B4C00D8009F3152279D31031CAD2DAE2DBB2DBE
:103B5C009A319F229D312200CF01D0010A302000E2
:103B6C00E40064082200E300BB2D0800F5001D2EC4
:103B7C007208F30073082300E80064082200CA00EE
:103B8C00230063082200C900230062082200C80039
:103B9C00230061082200C7002300E601E60A9A31DF
:103BAC0040229D31332E7208F30073082300E70086
:103BBC0022004E08C6004D08C5004C08C4004B0836
:103BCC00C3002300E501E50A9A3191229D31332E81
:103BDC00332EF02D7208F30073082300E8007208EE
:103BEC00F3007308E70064082200CA00230063088E
:103BFC002200C900230062082200C80023006108CB
:103C0C002200C7004E08C6004D08C5004C08C40071
:103C1C004B08C3002300E601E60AE501E50A9A31E8
:103C2C0091229D319A3140229D31332E332E7508CD
:103C3C00F300F4017408003A0319252EF02D7308D3
:103C4C00003A0319332E013A0319BE2D033A031916
:103C5C00D92D013A0319F02DF02D08002000111078
:103C6C0022005908F1005808F0009B310C239E31BA
:103C7C0001302200D1070030D23D5108F00052082B
:103C8C00F100F201F3010030903104209E317308F1
:103C9C002000D7007208D6007108D5007008D40037
:103CAC00220064082000E400E501E601E701670852
:103CBC00F3006608F2006508F1006408F0000130BA
:103CCC00903104209E3173082000A7007208A600D2
:103CDC007108A5007008A4004130A3002030A20098
:103CEC000030A1000030A000923157229E312000FC
:103CFC002308C1002208C0002108BF002008BE0014
:103D0C004130BD002030BC000030BB000030BA0098
:103D1C0088314B209E3120003D08DB003C08DA0046
:103D2C003B08D9003A08D8009F3152279E31031C1A
:103D3C00A02EA12EAE2E9A31AD229E312200D101A1
:103D4C00D2010A302000E40064082200E400AE2E08
:103D5C00080022002C08B0002D08B1002E08B2007B
:103D6C002F08B3000310320D330DB40034082100BA
:103D7C00EF006F08031DC32EC42ECF2E003022007F
:103D8C00AF000030AE000030AD000030AC00512F61
:103D9C00512F22002C08B0002D08B1002E08B200C3
:103DAC002F08B3001F30B336B20CB10CB00C890B1A
:103DBC00D92E3008B40034082100EE002200AE17D2
:103DCC00FF30AC05FF30AD05FF30AE050030AF0560
:103DDC0096302100EF02EF1FF42EF52E1B2F6F08EB
:103DEC00803A973E0318FB2EFC2E082F0030220041
:103DFC00AF000030AE000030AD000030AC00512FF1
:103E0C00512F082F01302200AF36AE0CAD0CAC0C8C
:103E1C00890B092F0130B00030082100EF07031D7A
:103E2C00182F192F082F402F402F20306F02031C02
:103E3C00202F212F382F00302200AF000030AE0091
:103E4C000030AD000030AC00512F512F382F013015
:103E5C002200AC35AD0DAE0DAF0D890B2E2F013000
:103E6C002100EF0221006F08031D3D2F3E2F2D2F47
:103E7C00402F402F6E080319442F452F512F22003D
:103E8C00AC09AD09AE09AF09AC0A0319AD0A0319A7
:103E9C00AE0A0319AF0A0800003020005405DC00FC
:103EAC0000305505DD0080305605DE007F305705AB
:103EBC00DF005F085E045D045C04031D662F672F42
:103ECC006F2F0030D7000030D6000030D500003006
:103EDC00D40000305805DC0000305905DD0080307E
:103EEC005A05DE007F305B05DF005F085E045D0471
:103EFC005C04031D822F832F8C2F0030DB000030DD
:103F0C00DA000030D9000030D8008C2FD71F8F2F4B
:103F1C00902FB82F0030DC000030DD000030DE00C8
:103F2C008030DF005409E0005509E1005609E20039
:103F3C005709E300E00A0319E10A0319E20A03191D
:103F4C00E30A6008DC076108DD3D6208DE3D6308BA
:103F5C00DF3D5F08D7005E08D6005D08D5005C0821
:103F6C00D400B82FDB1FBB2FBC2FE42F0030DC009C
:103F7C000030DD000030DE008030DF005809E0004A
:103F8C005909E1005A09E2005B09E300E00A031950
:103F9C00E10A0319E20A0319E30A6008DC07610865
:103FAC00DD3D6208DE3D6308DF3D5F08DB005E0837
:103FBC00DA005D08D9005C08D800E42F8030D70601
:103FCC008030DB065B085702031DF62F5A08560299
:103FDC00031DF62F59085502031DF62F58085402DD
:103FEC000318F92FFA2FFC2F0310FF2F0314FF2FA8
:043FFC00FF2F08008B
:020000040001F9
:04000E00E4FFFFFF0D
:00000001FF
